:100000000C9462000C948A000C948A000C948A0070
:100010000C948A000C948A000C948A000C948A0038
:100020000C948A000C948A000C948A000C948A0028
:100030000C948A000C948A000C948A000C948A0018
:100040000C94FC070C948A000C946C080C944608E1
:100050000C948A000C948A000C948A000C948A00F8
:100060000C949E080C948A000000000024002700D5
:100070002A000000000023002600290000000000E4
:10008000250028002B0004040404040404040202D4
:100090000202020203030303030301020408102007
:1000A0004080010204081020010204081020000012
:1000B0000008000201000003040700000000000027
:1000C0000000020A11241FBECFEFD8E0DEBFCDBF73
:1000D00011E0A0E0B1E0E4E7F0E202C005900D928B
:1000E000A436B107D9F722E0A4E6B1E001C01D9221
:1000F000AD3DB207E1F710E0C2E6D0E004C02197C1
:10010000FE010E94D10CC136D107C9F70E94470AEF
:100110000C9438100C9400000895089590E0FC01B0
:10012000E255FF4F2491FC01E656FF4F3491FC014C
:10013000EA57FF4FE491EE23C9F0222339F0233030
:1001400001F1A8F4213019F1223029F1F0E0EE0F8D
:10015000FF1FE458FF4FA591B4918FB7F894EC912D
:10016000611126C030953E233C938FBF0895273000
:10017000A9F02830C9F0243049F7809180008F7DA4
:1001800003C0809180008F7780938000DFCF84B59B
:100190008F7784BDDBCF84B58F7DFBCF8091B0009E
:1001A0008F778093B000D2CF8091B0008F7DF9CF50
:1001B0003E2BDACF3FB7F8948091AD019091AE011C
:1001C000A091AF01B091B00126B5A89B05C02F3F0B
:1001D00019F00196A11DB11D3FBFBA2FA92F982F6D
:1001E0008827BC01CD01620F711D811D911D42E068
:1001F000660F771F881F991F4A95D1F708958F9230
:100200009F92AF92BF92CF92DF92EF92FF924B01FB
:100210005C010E94DA006B017C010E94DA006C191B
:100220007D098E099F09683E734081059105A8F3F9
:1002300021E0821A9108A108B10888EEC80E83E077
:10024000D81EE11CF11C81149104A104B10429F70A
:10025000FF90EF90DF90CF90BF90AF909F908F90E6
:100260000895AF92BF92CF92DF92EF92FF920F93D9
:100270001F93CF93DF936C017B018B01040F151F3C
:10028000EB015E01AE18BF08C017D10759F06991A4
:10029000D601ED91FC910190F081E02DC601099508
:1002A000892B79F7C501DF91CF911F910F91FF90B5
:1002B000EF90DF90CF90BF90AF900895FC01538DE9
:1002C000448D252F30E0842F90E0821B930B541730
:1002D00010F0CF96089501970895FC01918D828DBD
:1002E000981761F0A28DAE0FBF2FB11D5D968C9156
:1002F000928D9F5F9F73928F90E008958FEF9FEF95
:100300000895FC01918D828D981731F0828DE80F50
:10031000F11D858D90E008958FEF9FEF0895FC010A
:10032000918D228D892F90E0805C9F4F821B9109D7
:100330008F739927089587E292E00E948F0121E050
:10034000892B09F420E0822F089580E090E0892B2A
:1003500029F00E949B0181110C9400000895FC017A
:10036000A48DA80FB92FB11DA35ABF4F2C91848D16
:1003700090E001968F739927848FA689B7892C9373
:10038000A089B1898C91837080648C93938D848DC6
:10039000981306C00288F389E02D80818F7D8083C9
:1003A0000895EF92FF920F931F93CF93DF93EC0189
:1003B00081E0888F9B8D8C8D98131AC0E889F9890C
:1003C000808185FF15C09FB7F894EE89FF8960830F
:1003D000E889F98980818370806480839FBF81E090
:1003E00090E0DF91CF911F910F91FF90EF900895D2
:1003F000F62E0B8D10E00F5F1F4F0F731127E02EAD
:100400008C8D8E110CC00FB607FCFACFE889F989E4
:10041000808185FFF5CFCE010E94AF01F1CFEB8D3A
:10042000EC0FFD2FF11DE35AFF4FF0829FB7F894B8
:100430000B8FEA89FB8980818062CFCFCF93DF93D6
:10044000EC01888D8823B9F0AA89BB89E889F989EC
:100450008C9185FD03C0808186FD0DC00FB607FC21
:10046000F7CF8C9185FFF2CF808185FFEDCFCE0154
:100470000E94AF01E9CFDF91CF91089520918501CE
:10048000260F3327331F21323105ECF42091FD0173
:10049000FC0190E080E0243069F082E00895A091B2
:1004A00085012191AC014B595E4FA40FB52FB11DB1
:1004B0002C930196861798F380918501680F6093BD
:1004C000850180E0089581E008951092FD0181E0AA
:1004D0008093FC011092D70161E082E10E948E00BE
:1004E00061E083E10E948E00E9EBF0E080818E7F85
:1004F000808380818D7F808388E48093B80085E449
:100500008093BC0008951092B6011092B50110922C
:100510000402109226020E9465028CE890E09093FB
:10052000B4018093B3018DE890E09093B201809381
:10053000B1010895CF93DF9391E0909364018823F4
:10054000B9F0C091B800D091BA008091BC008A7B0C
:100550008093BC0060E082E10E948E0060E083E155
:100560000E948E000E946502D093BA00C093B8002A
:10057000DF91CF9108958F929F92AF92BF92CF92C9
:10058000DF92EF92FF920F931F93CF93DF93D0915F
:100590002602D13208F0D7C0182FC09125020E9440
:1005A000DA006B017C018091FD0181116BC082E05A
:1005B0008093FD011093FC018FEF8093FB0110925B
:1005C000FA01D093F901A5E0B2E0E9EDF1E080E0B5
:1005D000D81391C01092D8018091D801CC0FC82BAC
:1005E000C093D8018091D701813009F088C0109262
:1005F000D7010E94DA006B017C018091D8018093C1
:10060000BB008091FF0190910002A0910102B09186
:100610000202892B8A2B8B2BA1F00E94DA00009119
:10062000FF011091000220910102309102026C1929
:100630007D098E099F09061717072807390708F44F
:1006400042C08091BC0083FDD8CF85EC8093BC0074
:100650000E94DA006B017C018091FD01823009F477
:1006600050C08091FB018F3F09F46FC08091FB0166
:10067000803209F46CC08091FB01803309F469C0B9
:1006800084E026C08091FF0190910002A0910102B8
:10069000B0910202892B8A2B8B2B09F484CF0E9404
:1006A000DA008090FF0190900002A0900102B090CB
:1006B00002026C197D098E099F0986169706A80605
:1006C000B90608F070CF8091FE010E949A0285E081
:1006D000109204021092260210920302DF91CF9131
:1006E0001F910F91FF90EF90DF90CF90BF90AF9050
:1006F0009F908F9008959D9191938F5F69CF85EE24
:10070000A5CF8091FF0190910002A0910102B091CC
:100710000202892B8A2B8B2B09F49ECF0E94DA00D0
:100720000091FF011091000220910102309102021C
:100730006C197D098E099F090617170728073907C5
:1007400008F08ACFC0CF81E0C3CF80E0C1CF82E084
:10075000BFCF83E0BDCF1F93CF93DF93EA01122F6A
:10076000DC0111968D919C91DC01ED91FC91028050
:10077000F381E02D0995C817D90729F4812F0E942C
:10078000BB0291E0811190E0892FDF91CF911F9101
:100790000895CF93DF93EC018B818823A1F08881AA
:1007A00091E090930302809325021092040210922C
:1007B000260281E00E94BB0291E0811190E0892F26
:1007C000DF91CF9108950E94830281E08B83CE0157
:1007D0000E94C903982F8111E2CFF1CF0895E091D3
:1007E000B6018091B501E81730F4F0E0E954FE4F0E
:1007F000808190E008958FEF9FEF08959091B6016A
:100800008091B5012FEF3FEF981748F4E92FF0E002
:10081000E954FE4F208130E09F5F9093B601C901FB
:1008200008958091B5019091B601891B990B0895A7
:10083000CF92DF92EF92FF920F931F93CF93DF93AC
:100840007C01CB018A0120910302222389F0EB0174
:100850006B01C40ED51ECC15DD0569F06991D70179
:10086000ED91FC910190F081E02DC7010995F3CF46
:10087000642F0E943E02C801DF91CF911F910F911A
:10088000FF90EF90DF90CF900895CF93DF931F926A
:10089000CDB7DEB76983209103022223F9F02091BE
:1008A0002602203258F021E030E0FC01338322831D
:1008B00090E080E00F90DF91CF9108958091040245
:1008C000E82FF0E0EB5FFD4F998190838F5F80937D
:1008D00004028093260281E090E0ECCF61E0CE013B
:1008E00001960E943E02F7CF90E080E00895FC015F
:1008F00001900020E9F73197AF01481B590BBC016B
:1009000087E292E00C9431018F929F92AF92BF9256
:100910000F931F93CF93DF93CDB7DEB7A1970FB699
:10092000F894DEBF0FBECDBF19A2423008F44AE0F2
:100930008E010F5D1F4F842E912CB12CA12CA5018F
:1009400094010E94990CE62FB901CA01EA30F4F42F
:10095000E05DD801EE938D01232B242B252B79F715
:1009600090E080E0109719F0CD010E947704A196E5
:100970000FB6F894DEBF0FBECDBFDF91CF911F91B0
:100980000F91BF90AF909F908F900895E95CE1CF59
:10099000CF92DF92EF92FF92CF93DF936B017C01B6
:1009A0006DE287E292E00E94D101EC016627772791
:1009B000CB016C197D098E099F094AE00E948404CD
:1009C0008C0F9D1FDF91CF91FF90EF90DF90CF9024
:1009D00008958F929F92AF92BF92CF92DF92EF9243
:1009E000FF921F93CF93DF936B017C01B42E20E025
:1009F00030E0A9010E94440DD0E0C0E087FF0AC0AA
:100A00006DE287E292E00E94D101EC01F7FAF094E6
:100A1000F7F8F09410E060E070E080E09FE31B15D1
:100A200041F020E030E040E251E40E94490D1F5FB8
:100A3000F6CFA70196010E94D80C6B017C010E94A1
:100A4000BB0D4B015C014AE00E948404C80FD91F12
:100A50001123C1F1C501B4010E94EA0D9B01AC0153
:100A6000C701B6010E94D70C6B017C016EE287E2E0
:100A700092E00E94D101C80FD91F115018F120E057
:100A800030E040E251E4C701B6010E94A10E4B01E3
:100A90005C010E94BB0D6B01F12CE12C4AE0C70107
:100AA000B6010E948404C80FD91FC701B6010E9475
:100AB000EA0D9B01AC01C501B4010E94D70C6B018A
:100AC0007C01DBCFCE01DF91CF911F91FF90EF90A2
:100AD000DF90CF90BF90AF909F908F900895BC0112
:100AE000990F880B990B97FD0C94C8044AE00C945D
:100AF00084040F931F93CF93DF9300D000D01F92F5
:100B0000CDB7DEB78C014F9714F00EE110E0023E36
:100B10008FEF180714F402EE1FEF20ED37E0D80135
:100B2000A65ABF4F0E94CA0C24EB30E040E050E0D0
:100B30000E947A0CCA01B9016C507E4F8F4F9F4FB3
:100B40002CE0660F771F881F991F2A95D1F720E2A6
:100B50003EE440E050E00E947A0C82E489831A82ED
:100B60001B822C833D838091D3029091D402FC019F
:100B7000248135812530310590F0208131E030939A
:100B8000030220932502109204021092260221E013
:100B900045E050E0BE016F5F7F4F0E94AB031093B2
:100BA0000301009302010F900F900F900F900F9090
:100BB000DF91CF911F910F910895CF93DF9300D0D4
:100BC000CDB7DEB789836A838091D3029091D40236
:100BD000FC01248135812230310590F0208131E003
:100BE00030930302209325021092040210922602F1
:100BF00021E042E050E0BE016F5F7F4F0E94AB03F7
:100C00000F900F90DF91CF9108952F923F924F92C6
:100C10005F926F927F928F929F92AF92BF92CF928C
:100C2000DF92EF92FF920F931F93CF93DF931F9268
:100C3000CDB7DEB76B017C0120E030E040E85FE338
:100C40000E94440D87FDECC020E030EC4AE555E4FD
:100C5000C701B6010E949C0E18160CF4E8C0609102
:100C6000D5027091D6028091D7029091D8020E944D
:100C7000EA0D4B015C0120E030E040E855E4C7019B
:100C8000B6010E94A10E9B01AC01C501B4010E94F6
:100C9000490D20E030E040E05FE30E94D80C20E006
:100CA00030E040E85FE30E94D70C6B017C0120E05C
:100CB00030E040E450E40E94440D87FDC0C020E0D5
:100CC00030E04FE753E4C701B6010E949C0E1816AE
:100CD0000CF4BBC0C701B6010E94BB0D962E198251
:100CE000E090D302F090D402D70114968D919C919C
:100CF0001597892B09F41AC18C9191E09093030206
:100D000080932502109204021092260220E041E016
:100D100050E0BE016F5F7F4FC7010E94AB03882385
:100D200009F404C18824839485EC382EF701C4802B
:100D3000D58001E0C114D10409F400E0A02EB12C4B
:100D4000D7012C900E94DA002B013C018091FD011B
:100D5000811182C0102F8092FD010093FC01BFEF32
:100D6000B093FB011092FA018FEF800F8093F9018D
:100D70008092D8018091D801220C282A2092D80193
:100D80008091D701813009F0A8C01092D7010E944C
:100D9000DA002B013C018091D8018093BB00809147
:100DA000FF0190910002A0910102B0910202892BF3
:100DB0008A2B8B2BA1F00E94DA002091FF01309149
:100DC00000024091010250910202641975098609DE
:100DD0009709261737074807590708F45EC080911E
:100DE000BC0083FDD8CF3092BC000E94DA002B01FA
:100DF0003C018091FD01813009F473C08091FA01BA
:100E0000801710F41091FA01E9EDF1E0A7EBB1E0E1
:100E100080E0811709F446C091919D938F5FF9CFCF
:100E2000C12CD12C40E8E42E4FE3F42E18CFC12C76
:100E300030ECD32E3AE5E32E35E4F32E10CFC12C5F
:100E4000D12C20E4E22EFE2C45CFC12CD12C9FE7E3
:100E5000E92E93E4F92E3ECF8091FF01909100029C
:100E6000A0910102B0910202892B8A2B8B2B09F4ED
:100E70006DCF0E94DA002091FF0130910002409175
:100E80000102509102026419750986099709261713
:100E900037074807590708F059CF8091FE010E9493
:100EA0009A0210E01092B6011093B5011A151B04B6
:100EB000E9F590E080E08A159B05A8F5D701119629
:100EC0008D919C91DC01ED91FC910284F385E02DE4
:100ED0000995898381E090E0EECFE5EEE093BC00D8
:100EE00084CF8091FF0190910002A0910102B09106
:100EF0000202892B8A2B8B2B09F47BCF0E94DA000C
:100F00002091FF01309100024091010250910202B4
:100F1000641975098609970926173707480759077D
:100F200008F067CFBACFCD2809F400CF1981612F1F
:100F30006F76606180E00E94DD05692D8EEF0E9472
:100F4000DD05612F80E00E94DD0565E070E080E056
:100F500090E00E94FF00612F606A80E00E94DD0542
:100F60000F90DF91CF911F910F91FF90EF90DF9045
:100F7000CF90BF90AF909F908F907F906F905F9039
:100F80004F903F902F90089585ED8093BC00809105
:100F9000FF0190910002A0910102B0910202079618
:100FA000A11DB11D23E0B695A795979587952A9524
:100FB000D1F72091BC0024FD03C01092FD010895DB
:100FC0004091FF0150910002609101027091020274
:100FD000452B462B472B69F30097A105B10541F03E
:100FE0002AE22A95F1F700C00197A109B109E1CFE2
:100FF0008091FE010C949A021F920F920FB60F92ED
:1010000011242F933F938F939F93AF93BF9380911E
:10101000A9019091AA01A091AB01B091AC013091CE
:10102000A80123E0230F2D3758F50196A11DB11D0E
:101030002093A8018093A9019093AA01A093AB01EA
:10104000B093AC018091AD019091AE01A091AF0140
:10105000B091B0010196A11DB11D8093AD01909397
:10106000AE01A093AF01B093B001BF91AF919F913A
:101070008F913F912F910F900FBE0F901F90189559
:1010800026E8230F0296A11DB11DD2CF1F920F9209
:101090000FB60F9211242F933F934F935F936F934B
:1010A0007F938F939F93AF93BF93EF93FF9387E2C9
:1010B00092E00E94AF01FF91EF91BF91AF919F919C
:1010C0008F917F916F915F914F913F912F910F90F1
:1010D0000FBE0F901F9018951F920F920FB60F9290
:1010E00011242F938F939F93EF93FF93E0913702F7
:1010F000F09138028081E0913D02F0913E0282FD44
:101100001BC09081809140028F5F8F7320914102BC
:10111000821741F0E0914002F0E0E95DFD4F958FCC
:1011200080934002FF91EF919F918F912F910F90AB
:101130000FBE0F901F9018958081F4CF1F920F92D1
:101140000FB60F9211242F933F934F935F936F939A
:101150007F938F939F93AF93BF93EF93FF93809170
:10116000B900887F803609F44AC0F0F5883209F466
:10117000A7C018F5803109F49BC0B8F4882309F49E
:10118000F9C0883009F494C0FF91EF91BF91AF91FD
:101190009F918F917F916F915F914F913F912F918F
:1011A0000F900FBE0F901F901895883109F488C0DA
:1011B000803251F78093FB0114C0803409F49DC044
:1011C00040F48033B9F38833F9F68093FB0185EC62
:1011D000B0C0803509F485C0883509F496C08834DC
:1011E00099F60E94C407D0CF883909F48CC038F52D
:1011F000883729F050F4883611F0803729F683E0DB
:101200008093FD011092A70157C0883809F47BC074
:10121000803919F0803809F0B7CF8091A70180326A
:1012200008F071C0E091A70181E08E0F8093A701C3
:101230008091BB00F0E0E957FE4F80833DC0803BCA
:1012400039F0E0F4803A09F479C0883A09F09CCF8B
:1012500084E08093FD011092860110928501E09157
:10126000B301F091B40109958091850181110FC0FE
:1012700081E0809385011092650109C0803C09F4EA
:10128000A6CF883C09F4A3CF883B09F07DCFE0913D
:10129000860181E08E0F80938601F0E0EB59FE4FCE
:1012A00080818093BB00909186018091850129C047
:1012B0008091D8018093BB0085EC8093BC0064CF03
:1012C0009091FA018091F901981758F5E091FA018F
:1012D00081E08E0F8093FA01F0E0E752FE4F8081AB
:1012E000E9CFE091FA0181E08E0F8093FA018091BD
:1012F000BB00F0E0E752FE4F80839091FA018091AD
:10130000F9019817C8F285E8D8CFE091FA0181E099
:101310008E0F8093FA018091BB00F0E0E752FE4F00
:1013200080838091FC0181115CCF81E08093D701A3
:1013300084EA8093BC001092FD0126CF85EC809357
:10134000BC001092FD018091A701803230F4E09141
:10135000A701F0E0E957FE4F10826091A70170E00D
:10136000E091B101F091B20187E891E00995109206
:10137000A7010ACF1092FB0134CFCF92DF92EF92F8
:10138000FF920F931F93E82FF92F05C00150110909
:101390002109310961F1908196239417B9F305C0B1
:1013A000015011092109310911F1908196239413FB
:1013B000F7CFC12CD12CE12CF12C0AC08FEFC81A29
:1013C000D80AE80AF80A0C151D052E053F0579F024
:1013D00080818623841791F36C2D7D2D8E2D9F2D7A
:1013E0001F910F91FF90EF90DF90CF90089560E0F4
:1013F00070E080E090E01F910F91FF90EF90DF9000
:10140000CF900895E7E2F2E01382128288EE93E033
:10141000A0E0B0E084839583A683B7832EE031E01B
:101420003183208325EC30E03587248724EC30E0BD
:101430003787268720EC30E0318B208B21EC30E0A1
:10144000338B228B22EC30E0358B248B26EC30E082
:10145000378B268B118E128E138E148EE4ECF2E0F5
:101460001382128284839583A683B78380E291E0FE
:1014700091838083A0EDB2E080E48C931296FC937C
:10148000EE93119714961C921E92139708957894D8
:1014900084B5826084BD84B5816084BD85B5826079
:1014A00085BD85B5816085BD80916E00816080932A
:1014B0006E00109281008091810082608093810093
:1014C00080918100816080938100809180008160A3
:1014D000809380008091B10084608093B1008091FE
:1014E000B00081608093B00080917A008460809326
:1014F0007A0080917A00826080937A0080917A00ED
:10150000816080937A0080917A00806880937A006D
:101510001092C100E3EAF0E02491EFE8F0E084915A
:10152000882399F090E0880F991FFC01E859FF4F3C
:10153000A591B491FC01E458FF4F859194918FB728
:10154000F894EC91E22BEC938FBFE4EAF0E0249165
:10155000E0E9F0E084918823C1F090E0880F991FC2
:10156000FC01E859FF4FA591B491FC01E458FF4FED
:10157000C591D4913FB7F8949C91822F8095982380
:101580009C939881892388833FBF60E089E00E9413
:101590008E00E0913702F091380282E08083E09182
:1015A0003302F09134021082E0913502F09136025C
:1015B00080E1808310923F02E0913B02F0913C0277
:1015C00086E08083E0913902F0913A028081806167
:1015D0008083E0913902F0913A02808188608083B3
:1015E000E0913902F0913A02808180688083E09135
:1015F0003902F0913A0280818F7D80830E948302BC
:101600008091D3029091D402009711F00E94AF0F05
:1016100086E090E00E94130FEC018091D10290913E
:10162000D2022091D00228839A8389831B8280E290
:1016300090E09D838C83D093D402C093D3020E9408
:10164000830281E08B83CE010E94C9038823E1F0ED
:1016500060E880E00E94DD056AE070E080E090E0F4
:101660000E94FF0080E498E7ADE7B1E08093D502E7
:101670009093D602A093D702B093D80260E070E0B6
:101680008AE794E40E94050660E070E088E492E452
:101690000E94050682EE9FEF0E94790564EF71E0DB
:1016A00080E090E00E94FF008EE291E00E947704CB
:1016B0008AE391E00E9477048DE391E00E94770431
:1016C00082EE9FEF0E946F058BE491E00E94770409
:1016D0008EE190E00E946F058BE491E00E94770418
:1016E00040E060E070E088EC93E40E94E9048AE363
:1016F00091E00E94770423E2222E312CC0E0D0E05A
:10170000AA24A394B12C88248A94982C60E089E0C0
:101710000E948E0083E090E00197F1F761E089E09C
:101720000E948E00C1010197F1F760E089E00E94FC
:101730008E00E4EAF0E06491E0E9F0E08491E82FC3
:10174000F0E0EE0FFF1FEE58FF4F8591949100E3FC
:1017500015E720E030E0462F0E94BD0961157105B4
:101760008105910511F16F5F7F4F8F4F9F4F9F70E4
:101770006115710581059105C1F00E94EA0D28E20D
:101780003EE74CE05DE30E94A10E20E030E040E047
:101790005FE30E94A10E6B017C0120E030E048EC89
:1017A00053E40E949C0E181634F4C12CD12C80E80E
:1017B000E82E8FEBF82E8DE491E00E947704609183
:1017C000020170910301072E000C880B990B97FF03
:1017D0003EC00E94C8048BE491E00E94770420E0A0
:1017E00030E0A901C701B6010E94440D87FF33C054
:1017F00084E591E00E9477048AE391E00E947704F7
:10180000809102019091030120910001309101012A
:10181000820F931F8F3191050CF460C090920101EB
:10182000809200018EE190E00E94790563E270E011
:1018300080E090E00E94FF00209709F467CF0E94AB
:101840009B01882309F462CF0E9400005FCF4AE029
:101850000E948404C0CFA7019601C701B6010E946F
:101860000E0F882319F087E591E0C4CF26013701D8
:10187000E89477F82FEF3FEF4FE75FE7C301B2013E
:101880000E940E0F81110DC02FEF3FEF4FE75FE772
:10189000C301B2010E94440D18161CF48BE591E0BF
:1018A000A9CF2FEF3FEF4FE75FE4C701B6010E94DA
:1018B0009C0E18161CF48FE591E09CCF2FEF3FEFA4
:1018C0004FE75FECC701B6010E94440D87FDF3CFDF
:1018D00042E0C701B6010E94E9048ECF823EFFEFCD
:1018E0009F070CF0A1CFB0920101A092000182EEFF
:1018F0009FEF9ACF052E97FB1EF400940E94910C47
:1019000057FD07D00E94990C07FC03D04EF40C94AD
:10191000910C50954095309521953F4F4F4F5F4F1B
:10192000089590958095709561957F4F8F4F9F4F4B
:101930000895A1E21A2EAA1BBB1BFD010DC0AA1F10
:10194000BB1FEE1FFF1FA217B307E407F50720F028
:10195000A21BB30BE40BF50B661F771F881F991FA3
:101960001A9469F760957095809590959B01AC01EC
:10197000BD01CF010895A29FB001B39FC001A39FF5
:10198000700D811D1124911DB29F700D811D1124B8
:10199000911D08950E94BB0CB7FF0895821B930B05
:1019A0000895EE0FFF1F0590F491E02D0994505813
:1019B000BB27AA270E94EF0C0C94620E0E94540EC3
:1019C00038F00E945B0E20F039F49F3F19F426F4A2
:1019D0000C94510E0EF4E095E7FB0C944B0EE92F9E
:1019E0000E94730E58F3BA176207730784079507AE
:1019F00020F079F4A6F50C94950E0EF4E0950B2EDC
:101A0000BA2FA02D0B01B90190010C01CA01A00150
:101A10001124FF27591B99F0593F50F4503E68F1AB
:101A20001A16F040A22F232F342F4427585FF3CFEC
:101A3000469537952795A795F0405395C9F77EF4BD
:101A40001F16BA0B620B730B840BBAF09150A1F006
:101A5000FF0FBB1F661F771F881FC2F70EC0BA0F8C
:101A6000621F731F841F48F4879577956795B79514
:101A7000F7959E3F08F0B0CF9395880F08F099270F
:101A8000EE0F9795879508950E94270E08F481E040
:101A900008950E945D0D0C94620E0E945B0E58F03A
:101AA0000E94540E40F029F45F3F29F00C944B0E35
:101AB00051110C94960E0C94510E0E94730E68F303
:101AC0009923B1F3552391F3951B550BBB27AA27F7
:101AD00062177307840738F09F5F5F4F220F331F31
:101AE000441FAA1FA9F335D00E2E3AF0E0E832D0F9
:101AF00091505040E695001CCAF72BD0FE2F29D0FC
:101B0000660F771F881FBB1F261737074807AB07CD
:101B1000B0E809F0BB0B802DBF01FF2793585F4F42
:101B20003AF09E3F510578F00C944B0E0C94960EB3
:101B30005F3FE4F3983ED4F3869577956795B79524
:101B4000F7959F5FC9F7880F911D9695879597F92F
:101B50000895E1E0660F771F881FBB1F62177307A8
:101B60008407BA0720F0621B730B840BBA0BEE1FBD
:101B700088F7E09508950E947B0E88F09F5798F0B3
:101B8000B92F9927B751B0F0E1F0660F771F881F82
:101B9000991F1AF0BA95C9F714C0B13091F00E949C
:101BA000950EB1E008950C94950E672F782F882735
:101BB000B85F39F0B93FCCF3869577956795B395C3
:101BC000D9F73EF490958095709561957F4F8F4F32
:101BD0009F4F0895E89409C097FB3EF49095809537
:101BE000709561957F4F8F4F9F4F9923A9F0F92FE3
:101BF00096E9BB279395F695879577956795B79561
:101C0000F111F8CFFAF4BB0F11F460FF1BC06F5F46
:101C10007F4F8F4F9F4F16C0882311F096E911C058
:101C2000772321F09EE8872F762F05C0662371F079
:101C300096E8862F70E060E02AF09A95660F771F8D
:101C4000881FDAF7880F9695879597F90895990F69
:101C50000008550FAA0BE0E8FEEF16161706E80776
:101C6000F907C0F012161306E407F50798F0621B97
:101C7000730B840B950B39F40A2661F0232B242B6C
:101C8000252B21F408950A2609F4A140A6958FEF8B
:101C9000811D811D089597F99F6780E870E060E0DD
:101CA00008959FEF80EC089500240A9416161706F5
:101CB00018060906089500240A941216130614063D
:101CC00005060895092E0394000C11F4882352F0A0
:101CD000BB0F40F4BF2B11F460FF04C06F5F7F4F58
:101CE0008F4F9F4F089557FD9058440F551F59F03F
:101CF0005F3F71F04795880F97FB991F61F09F3FF9
:101D000079F087950895121613061406551FF2CF21
:101D10004695F1DF08C0161617061806991FF1CF71
:101D200086957105610508940895E894BB27662798
:101D30007727CB0197F908950E94270E08F48FEFBB
:101D400008950E94B40E0C94620E0E94540E38F056
:101D50000E945B0E20F0952311F00C944B0E0C9416
:101D6000510E11240C94960E0E94730E70F3959FE1
:101D7000C1F3950F50E0551F629FF001729FBB2782
:101D8000F00DB11D639FAA27F00DB11DAA1F649F1E
:101D90006627B00DA11D661F829F2227B00DA11DD1
:101DA000621F739FB00DA11D621F839FA00D611D57
:101DB000221F749F3327A00D611D231F849F600D78
:101DC000211D822F762F6A2F11249F5750409AF0A1
:101DD000F1F088234AF0EE0FFF1FBB1F661F771F2D
:101DE000881F91505040A9F79E3F510580F00C94F8
:101DF0004B0E0C94960E5F3FE4F3983ED4F3869519
:101E000077956795B795F795E7959F5FC1F7FE2B97
:101E1000880F911D9695879597F908950E94270E32
:101E2000880B990B08950F931F93CF93DF93823004
:101E3000910510F482E090E0E091DB02F091DC0289
:101E400030E020E0B0E0A0E0309799F421153105B2
:101E500009F44AC0281B390B24303105D8F58A8192
:101E60009B816115710589F1FB0193838283FE01DA
:101E700011C0408151810281138148175907E0F058
:101E80004817590799F4109761F012960C9312971E
:101E900013961C933296CF01DF91CF911F910F9132
:101EA00008950093DB021093DC02F4CF2115310575
:101EB00051F04217530738F0A901DB019A01BD0127
:101EC000DF01F801C1CFEF01F9CF9093DC028093DD
:101ED000DB02CDCFFE01E20FF31F819391932250DD
:101EE000310939832883D7CF2091D9023091DA0282
:101EF000232B41F420910601309107013093DA023F
:101F00002093D9022091040130910501211531055A
:101F100041F42DB73EB74091080150910901241BAF
:101F2000350BE091D902F091DA02E217F307A0F441
:101F30002E1B3F0B2817390778F0AC014E5F5F4F1F
:101F40002417350748F04E0F5F1F5093DA02409375
:101F5000D902819391939FCFF0E0E0E09CCFCF93A3
:101F6000DF930097E9F0FC01329713821282A0916F
:101F7000DB02B091DC02ED0130E020E01097A1F42B
:101F800020813181820F931F2091D9023091DA0292
:101F90002817390709F061C0F093DA02E093D902FB
:101FA000DF91CF910895EA01CE17DF07E8F54A8166
:101FB0005B819E0141155105B1F7E901FB83EA837D
:101FC00049915991C40FD51FEC17FD0761F4808129
:101FD00091810296840F951FE901998388838281FC
:101FE00093819B838A83F0E0E0E012968D919C912F
:101FF00013970097B9F52D913C911197CD01029659
:10200000820F931F2091D9023091DA0228173907E5
:1020100039F6309751F51092DC021092DB02B09342
:10202000DA02A093D902BCCFD383C283408151810D
:10203000840F951FC817D90761F44E5F5F4F8881E1
:102040009981480F591F518340838A819B819383D3
:1020500082832115310509F0B0CFF093DC02E093C3
:10206000DB029ECFFD01DC01C0CF13821282D7CFED
:04207000F894FFCF12
:102074000100E2FF0000DD02800000000000D10149
:1020840031015E011E028F016D018101000000001B
:10209400450418047404EE031104FE03EF035241D3
:1020A4004441525F5245414459000D0A0052414493
:1020B40041525F434F4E4649473A002C0052414437
:1020C40041523A002D31006E616E00696E66006FF8
:0420D400766600002C
:00000001FF
