:100000000C9458000C9480000C9480000C94800098
:100010000C9480000C9480000C9480000C94800060
:100020000C9480000C9480000C9480000C94800050
:100030000C9480000C9480000C9480000C94800040
:100040000C94B3090C9480000C94230A0C94FD09C1
:100050000C9480000C9480000C9480000C94800020
:100060000C94550A0C948000000000002500280024
:100070002B00040404040404040402020202020229
:10008000030303030303010204081020408001025C
:1000900004081020010204081020000000080002DB
:1000A00001000003040700000000000000008F0BA7
:1000B00011241FBECFEFD8E0DEBFCDBF14E0A0E01B
:1000C000B1E0E6E6F9E202C005900D92A635B1076F
:1000D000D9F725E0A6E5B4E001C01D92A13DB20725
:1000E000E1F710E0C8E5D0E004C02197FE010E94CE
:1000F0005011C735D107C9F70E94D40B0C94B11425
:100100000C9400000895089590E0FC01E656FF4F1E
:100110002491FC01EA57FF4F3491FC01EE58FF4F48
:10012000E491EE23C9F0222339F0233001F1A8F441
:10013000213019F1223029F1F0E0EE0FFF1FE859CC
:10014000FF4FA591B4918FB7F894EC91611126C03F
:1001500030953E233C938FBF08952730A9F0283077
:10016000C9F0243049F7809180008F7D03C08091D1
:1001700080008F7780938000DFCF84B58F7784BD38
:10018000DBCF84B58F7DFBCF8091B0008F778093DC
:10019000B000D2CF8091B0008F7DF9CF3E2BDACF67
:1001A0003FB7F89480919D0490919E04A0919F0484
:1001B000B091A00426B5A89B05C02F3F19F0019669
:1001C000A11DB11D3FBFBA2FA92F982F8827BC01B1
:1001D000CD01620F711D811D911D42E0660F771FD9
:1001E000881F991F4A95D1F708958F929F92AF92D9
:1001F000BF92CF92DF92EF92FF924B015C010E947F
:10020000D0006B017C010E94D0006C197D098E0921
:100210009F09683E734081059105A8F321E0821A89
:100220009108A108B10888EEC80E83E0D81EE11C31
:10023000F11C81149104A104B10429F7FF90EF90FF
:10024000DF90CF90BF90AF909F908F900895AF9226
:10025000BF92CF92DF92EF92FF920F931F93CF93B3
:10026000DF936C017B018B01040F151FEB015E0115
:10027000AE18BF08C017D10759F06991D601ED91AA
:10028000FC910190F081E02DC6010995892B79F749
:10029000C501DF91CF911F910F91FF90EF90DF90FB
:1002A000CF90BF90AF900895FC01538D448D252FC2
:1002B00030E0842F90E0821B930B541710F0CF9600
:1002C000089501970895FC01918D828D981761F032
:1002D000A28DAE0FBF2FB11D5D968C91928D9F5F49
:1002E0009F73928F90E008958FEF9FEF08952FB73F
:1002F000F8948091C7049091C804A091C904B0916A
:10030000CA042FBF8093230590932405A09325054D
:10031000B09326058BE195E00E94630197FF26C00C
:100320002FB7F8948091C7049091C804A091C90494
:10033000B091CA042FBF40912305509124056091CC
:10034000250570912605841B950BA60BB70B4091D4
:100350001F05509120056091210570912205841799
:100360009507A607B707B0F28FEF9FEF0895FC013E
:10037000918D828D981731F0828DE80FF11D858D5A
:1003800090E008958FEF9FEF0895FC01918D228DED
:10039000892F90E0805C9F4F821B91098F73992772
:1003A00008958BE195E00E94C50121E0892B09F4B5
:1003B00020E0822F089580E090E0892B29F00E94B0
:1003C000D10181110C9400000895FC01A48DA80FA7
:1003D000B92FB11DA35ABF4F2C91848D90E0019687
:1003E0008F739927848FA689B7892C93A089B189A7
:1003F0008C91837080648C93938D848D981306C048
:100400000288F389E02D80818F7D80830895EF92AB
:10041000FF920F931F93CF93DF93EC0181E0888FBE
:100420009B8D8C8D98131AC0E889F989808185FF8E
:1004300015C09FB7F894EE89FF896083E889F98930
:1004400080818370806480839FBF81E090E0DF9132
:10045000CF911F910F91FF90EF900895F62E0B8D85
:1004600010E00F5F1F4F0F731127E02E8C8D8E1140
:100470000CC00FB607FCFACFE889F989808185FFA7
:10048000F5CFCE010E94E501F1CFEB8DEC0FFD2FF2
:10049000F11DE35AFF4FF0829FB7F8940B8FEA8962
:1004A000FB8980818062CFCFCF93DF93EC01888D71
:1004B0008823B9F0AA89BB89E889F9898C9185FDDF
:1004C00003C0808186FD0DC00FB607FCF7CF8C916D
:1004D00085FFF2CF808185FFEDCFCE010E94E5013F
:1004E000E9CFDF91CF91089520917704260F33272C
:1004F000331F21323105ECF42091F104FC0190E02E
:1005000080E0243069F082E00895A0917704219181
:10051000AC01495A5B4FA40FB52FB11D2C93019626
:10052000861798F380917704680F6093770480E0D2
:10053000089581E008951092F10481E08093F00421
:100540001092CB0461E082E10E94840061E083E1CB
:100550000E948400E9EBF0E080818E7F80838081BF
:100560008D7F808388E48093B80085E48093BC000D
:1005700008951092A6041092A5041092F804109207
:100580001A050E949B0282E890E09093A404809355
:10059000A30483E890E09093A2048093A1040895BB
:1005A000CF93DF9391E0909356048823B9F0C091E4
:1005B000B800D091BA008091BC008A7B8093BC00C7
:1005C00060E082E10E94840060E083E10E94840098
:1005D0000E949B02D093BA00C093B800DF91CF91E4
:1005E00008958F929F92AF92BF92CF92DF92EF9237
:1005F000FF920F931F93CF93DF93D0911A05D132BF
:1006000008F0D7C0182FC09119050E94D0006B01C7
:100610007C018091F10481116BC082E08093F10430
:100620001093F0048FEF8093EF041092EE04D093B8
:10063000ED04A9EFB4E0EDECF4E080E0D81391C054
:100640001092CC048091CC04CC0FC82BC093CC0466
:100650008091CB04813009F088C01092CB040E94B5
:10066000D0006B017C018091CC048093BB00809111
:10067000F3049091F404A091F504B091F604892B51
:100680008A2B8B2BA1F00E94D0000091F3041091D3
:10069000F4042091F5043091F6046C197D098E095B
:1006A0009F09061717072807390708F442C08091E9
:1006B000BC0083FDD8CF85EC8093BC000E94D000A5
:1006C0006B017C018091F104823009F450C080916B
:1006D000EF048F3F09F46FC08091EF04803209F47A
:1006E0006CC08091EF04803309F469C084E026C0B7
:1006F0008091F3049091F404A091F504B091F60474
:10070000892B8A2B8B2B09F484CF0E94D0008090F8
:10071000F3049090F404A090F504B090F6046C19E2
:100720007D098E099F0986169706A806B90608F066
:1007300070CF8091F2040E94D00285E01092F804FC
:1007400010921A051092F704DF91CF911F910F912B
:10075000FF90EF90DF90CF90BF90AF909F908F90E1
:1007600008959D9191938F5F69CF85EEA5CF80917C
:10077000F3049091F404A091F504B091F604892B50
:100780008A2B8B2B09F49ECF0E94D0000091F3049A
:100790001091F4042091F5043091F6046C197D0950
:1007A0008E099F09061717072807390708F08ACF0F
:1007B000C0CF81E0C3CF80E0C1CF82E0BFCF83E074
:1007C000BDCF1F93CF93DF93EA01122FDC01119667
:1007D0008D919C91DC01ED91FC910280F381E02DE3
:1007E0000995C817D90729F4812F0E94F10291E0D9
:1007F000811190E0892FDF91CF911F910895CF93C0
:10080000DF93EC018B818823A1F0888191E09093A4
:10081000F704809319051092F80410921A0581E0EC
:100820000E94F10291E0811190E0892FDF91CF9138
:1008300008950E94B90281E08B83CE010E94FF03DC
:10084000982F8111E2CFF1CF0895E091A604809115
:10085000A504E81730F4F0E0E955FB4F808190E003
:1008600008958FEF9FEF08959091A6048091A504BD
:100870002FEF3FEF981748F4E92FF0E0E955FB4FD1
:10088000208130E09F5F9093A604C9010895809174
:10089000A5049091A604891B990B0895CF92DF922D
:1008A000EF92FF920F931F93CF93DF937C01CB01C5
:1008B0008A012091F704222389F0EB016B01C40E19
:1008C000D51ECC15DD0569F06991D701ED91FC913C
:1008D0000190F081E02DC7010995F3CF642F0E94AC
:1008E0007402C801DF91CF911F910F91FF90EF909B
:1008F000DF90CF900895CF93DF931F92CDB7DEB7EF
:1009000069832091F7042223F9F020911A052032FF
:1009100058F021E030E0FC013383228390E080E056
:100920000F90DF91CF9108958091F804E82FF0E0C7
:10093000E750FB4F998190838F5F8093F8048093F9
:100940001A0581E090E0ECCF61E0CE0101960E94B3
:100950007402F7CF90E080E00895FC010190002040
:10096000E9F73197AF01481B590BBC018BE195E0CA
:100970000C9427018F929F92AF92BF920F931F9377
:10098000CF93DF93CDB7DEB7A1970FB6F894DEBF54
:100990000FBECDBF19A2423008F44AE08E010F5DB0
:1009A0001F4F842E912CB12CA12CA50194010E94E3
:1009B0001811E62FB901CA01EA30F4F4E05DD8015C
:1009C000EE938D01232B242B252B79F790E080E0EB
:1009D000109719F0CD010E94AD04A1960FB6F894BE
:1009E000DEBF0FBECDBFDF91CF911F910F91BF90A2
:1009F000AF909F908F900895E95CE1CFCF93DF9304
:100A00000E94AD04EC018BE291E00E94AD048C0FDA
:100A10009D1FDF91CF910895CF92DF92EF92FF92C9
:100A2000CF93DF936C01990FEE08FF08F7FE19C012
:100A30006DE28BE195E00E940702EC0166277727C3
:100A4000CB016C197D098E099F094AE00E94BA0406
:100A50008C0F9D1FDF91CF91FF90EF90DF90CF9093
:100A600008954AE0C701B601DF91CF91FF90EF9062
:100A7000DF90CF900C94BA041F93CF93DF9300D0F4
:100A800000D01F92CDB7DEB72AE129831A821B82DC
:100A90008C839D838091C7059091C805FC012481BA
:100AA000358125303105E0F0208111E01093F70405
:100AB000209319051092F80410921A0521E045E0E0
:100AC00050E0BE016F5F7F4F0E94E10381270F90CE
:100AD0000F900F900F900F90DF91CF911F9108957D
:100AE00081E0F5CF90E080E00E943C05109200018B
:100AF0008EE291E00E94FE0484E591E00E94FE04F3
:100B000081E791E00E94FE048EE291E00C94FE04E5
:100B1000CF93DF93EC018B35910514F0CAE5D0E05B
:100B2000C63A8FEFD80714F4C6EADFEFDE01A65A03
:100B3000BF4F20ED37E00E94491124EB30E040E048
:100B400050E00E94C210CA01B9016C507E4F8F4F15
:100B50009F4F2CE0660F771F881F991F2A95D1F7AA
:100B600020E23EE440E050E00E94C210C9010E9431
:100B70003C05D0939B04C0939A048BE991E00E94BA
:100B8000AD0480919A0490919B040E940C058CEA1C
:100B900091E0DF91CF910C94FE04CF93DF9300D0CE
:100BA000CDB7DEB789836A838091C7059091C80568
:100BB000FC01248135812230310590F0208131E023
:100BC0003093F704209319051092F80410921A0537
:100BD00021E042E050E0BE016F5F7F4F0E94E103E1
:100BE0000F900F90DF91CF9108952F923F924F92E7
:100BF0005F926F927F928F929F92AF92BF92CF92AD
:100C0000DF92EF92FF920F931F93CF93DF931F9288
:100C1000CDB7DEB76B017C0120E030E040E85FE358
:100C20000E949B0F87FDECC020E030EC4AE555E4C4
:100C3000C701B6010E94641218160CF4E8C0609156
:100C4000C9057091CA058091CB059091CC050E9491
:100C5000A00F4B015C0120E030E040E855E4C70103
:100C6000B6010E9401109B01AC01C501B4010E94B4
:100C7000C31120E030E040E05FE30E94571120E024
:100C800030E040E85FE30E9456116B017C0120E0F8
:100C900030E040E450E40E949B0F87FDC0C020E09C
:100CA00030E04FE753E4C701B6010E946412181602
:100CB0000CF4BBC0C701B6010E943512962E1982F2
:100CC000E090C705F090C805D70114968D919C91CE
:100CD0001597892B09F41AC18C9191E09093F70430
:100CE000809319051092F80410921A0520E041E053
:100CF00050E0BE016F5F7F4FC7010E94E103882370
:100D000009F404C18824839485EC382EF701C4804B
:100D1000D58001E0C114D10409F400E0A02EB12C6B
:100D2000D7012C900E94D0002B013C018091F1044E
:100D3000811182C0102F8092F1040093F004BFEF64
:100D4000B093EF041092EE048FEF800F8093ED04C8
:100D50008092CC048091CC04220C282A2092CC04CE
:100D60008091CB04813009F0A8C01092CB040E947E
:100D7000D0002B013C018091CC048093BB0080917A
:100D8000F3049091F404A091F504B091F604892B3A
:100D90008A2B8B2BA1F00E94D0002091F30430917C
:100DA000F4044091F5045091F6046419750986091C
:100DB0009709261737074807590708F45EC080913E
:100DC000BC0083FDD8CF3092BC000E94D0002B0124
:100DD0003C018091F104813009F473C08091EE04EC
:100DE000801710F41091EE04EDECF4E0A7EAB4E003
:100DF00080E0811709F446C091919D938F5FF9CFF0
:100E0000C12CD12C40E8E42E4FE3F42E18CFC12C96
:100E100030ECD32E3AE5E32E35E4F32E10CFC12C7F
:100E2000D12C20E4E22EFE2C45CFC12CD12C9FE703
:100E3000E92E93E4F92E3ECF8091F3049091F404CF
:100E4000A091F504B091F604892B8A2B8B2B09F421
:100E50006DCF0E94D0002091F3043091F4044091B2
:100E6000F5045091F6046419750986099709261747
:100E700037074807590708F059CF8091F2040E94BC
:100E8000D00210E01092A6041093A5041A151B04BA
:100E9000E9F590E080E08A159B05A8F5D701119649
:100EA0008D919C91DC01ED91FC910284F385E02D04
:100EB0000995898381E090E0EECFE5EEE093BC00F8
:100EC00084CF8091F3049091F404A091F504B09143
:100ED000F604892B8A2B8B2B09F47BCF0E94D00040
:100EE0002091F3043091F4044091F5045091F604FC
:100EF000641975098609970926173707480759079E
:100F000008F067CFBACFCD2809F400CF1981612F3F
:100F10006F76606180E00E94CD05692D8EEF0E94A2
:100F2000CD05612F80E00E94CD0565E070E080E096
:100F300090E00E94F500612F606A80E00E94CD057C
:100F40000F90DF91CF911F910F91FF90EF90DF9065
:100F5000CF90BF90AF909F908F907F906F905F9059
:100F60004F903F902F900895FC01808191810097D0
:100F700011F00C94051308952F923F924F925F92B7
:100F80006F927F928F929F92AF92BF92CF92DF9299
:100F9000EF92FF920F931F93CF93DF9300D000D077
:100FA000CDB7DEB7FC01448055804114510409F4EB
:100FB00012C1FB01648075806114710409F40BC1D6
:100FC0007A016B019C838B83FA01A480B580A618FB
:100FD000B708FC0100811181A114B104B9F4F60134
:100FE00060817181C8010E9497148C01009709F4F7
:100FF000F2C0F70160817181448155810E945314D0
:10100000F70184819581080F191FE9CFB7FC10C043
:10101000FB01208031804201C801B1010E94971478
:10102000009709F44EC0860D971D8A0C9B1CF5CFC6
:101030003801F60160817181C8010E9497142C016A
:10104000009729F14C01801A910AA401B801C3014B
:101050000E945314680C791CF701608171814481EE
:101060005581C3010E945314F70184809580680C58
:10107000791CF60104811581040D151DEB81FC819D
:10108000848195818A0D9B1D95838483D2CFB8017D
:10109000C3010F900F900F900F90DF91CF911F9190
:1010A0000F91FF90EF90DF90CF90BF90AF909F9007
:1010B0008F907F906F905F904F903F902F900C9407
:1010C00082144814590409F486C0EB81FC818281A2
:1010D00093818815990578F4B4016F5F7F4FC8013B
:1010E0000E948E13009709F476C0EB81FC819183F6
:1010F000808393828282EB81FC810481158101507F
:10110000110917FD68C03801F601248035802114CB
:10111000310409F460C0EB81FC81848095808114E6
:10112000910409F458C08214930408F454C00815BB
:10113000190520F03401F1E06F1A7108EB81FC8190
:1011400040805180C2010FEF1FEF9201260D371D25
:101150003A832983E981FA81E817F90788F0F601D3
:10116000608171810E949714009751F09C012419AD
:1011700035096216730608F4980101968901EACFD1
:1011800017FD29C0200E311EC201820D931DA4013E
:1011900042195309BC018A0D9B1D0E945C14EB810E
:1011A000FC81848195818A0D9B1D95838483208198
:1011B0003181820F931FFC011082EB81FC818081C1
:1011C0009181F7016081718144815581800F911F68
:1011D0000E94531494CF0F900F900F900F90DF91B7
:1011E000CF911F910F91FF90EF90DF90CF90BF9024
:1011F000AF909F908F907F906F905F904F903F90B7
:101200002F9008950F931F93CF93DF93EC01888164
:101210009981009759F02A813B812617370730F0D2
:1012200081E0DF91CF911F910F9108958B016F5F46
:101230007F4F0E948E13009759F0998388831B83F8
:101240000A832C813D81232B59F7FC011082E8CFC2
:1012500080E0E7CFEF92FF920F931F93CF93DF933E
:10126000EC017B018A01BA010E94020928813981BF
:10127000811114C02115310519F0C9010E9405130F
:10128000198218821D821C821B821A82CE01DF9174
:10129000CF911F910F91FF90EF9008951D830C83C4
:1012A000B701C9010E948214F1CFFC0111821082A2
:1012B0001382128215821482FB0101900020E9F74B
:1012C0003197AF01461B570B0C942A09FC0124816E
:1012D0003581232B39F421E0FB018081882349F0FB
:1012E00020E007C0808191810E94791421E0892B40
:1012F000B9F7822F089585ED8093BC008091F304A7
:101300009091F404A091F504B091F6040796A11D04
:10131000B11D23E0B695A795979587952A95D1F7A6
:101320002091BC0024FD03C01092F1040895409167
:10133000F3045091F4046091F5047091F604452B88
:10134000462B472B69F30097A105B10541F02AE22E
:101350002A95F1F700C00197A109B109E1CF809169
:10136000F2040C94D0021F920F920FB60F92112428
:101370002F933F938F939F93AF93BF938091C70415
:101380009091C804A091C904B091CA0430919C0402
:1013900023E0230F2D3758F50196A11DB11D209391
:1013A0009C048093C7049093C804A093C904B0938D
:1013B000CA0480919D0490919E04A0919F04B091D5
:1013C000A0040196A11DB11D80939D0490939E04DD
:1013D000A0939F04B093A004BF91AF919F918F9170
:1013E0003F912F910F900FBE0F901F90189526E8F8
:1013F000230F0296A11DB11DD2CF1F920F920FB6DF
:101400000F9211242F933F934F935F936F937F938A
:101410008F939F93AF93BF93EF93FF938BE195E0EF
:101420000E94E501FF91EF91BF91AF919F918F9144
:101430007F916F915F914F913F912F910F900FBED0
:101440000F901F9018951F920F920FB60F921124B4
:101450002F938F939F93EF93FF93E0912B05F09140
:101460002C058081E0913105F091320582FD1BC091
:101470009081809134058F5F8F732091350582179D
:1014800041F0E0913405F0E0E55EFA4F958F8093EE
:101490003405FF91EF919F918F912F910F900FBE87
:1014A0000F901F9018958081F4CF1F920F920FB666
:1014B0000F9211242F933F934F935F936F937F93DA
:1014C0008F939F93AF93BF93EF93FF938091B90056
:1014D000887F803609F44AC0F0F5883209F4A7C045
:1014E00018F5803109F49BC0B8F4882309F4F9C0D9
:1014F000883009F494C0FF91EF91BF91AF919F9113
:101500008F917F916F915F914F913F912F910F90AC
:101510000FBE0F901F901895883109F488C0803253
:1015200051F78093EF0414C0803409F49DC040F457
:101530008033B9F38833F9F68093EF0485ECB0C0BB
:10154000803509F485C0883509F496C0883499F649
:101550000E947B09D0CF883909F48CC038F58837D0
:1015600029F050F4883611F0803729F683E0809313
:10157000F1041092990457C0883809F47BC080396F
:1015800019F0803809F0B7CF80919904803208F0C3
:1015900071C0E091990481E08E0F8093990480914D
:1015A000BB00F0E0E758FB4F80833DC0803B39F043
:1015B000E0F4803A09F479C0883A09F09CCF84E0DD
:1015C0008093F1041092780410927704E091A304C0
:1015D000F091A40409958091770481110FC081E0F6
:1015E000809377041092570409C0803C09F4A6CF79
:1015F000883C09F4A3CF883B09F07DCFE0917804C3
:1016000081E08E0F80937804F0E0E95AFB4F8081EF
:101610008093BB00909178048091770429C08091D9
:10162000CC048093BB0085EC8093BC0064CF909188
:10163000EE048091ED04981758F5E091EE0481E0F6
:101640008E0F8093EE04F0E0E353FB4F8081E9CFEF
:10165000E091EE0481E08E0F8093EE048091BB0058
:10166000F0E0E353FB4F80839091EE048091ED0412
:101670009817C8F285E8D8CFE091EE0481E08E0F8C
:101680008093EE048091BB00F0E0E353FB4F808336
:101690008091F00481115CCF81E08093CB0484EAD7
:1016A0008093BC001092F10426CF85EC8093BC009F
:1016B0001092F10480919904803230F4E091990401
:1016C000F0E0E758FB4F10826091990470E0E091E0
:1016D000A104F091A20489E794E00995109299047D
:1016E0000ACF1092EF0434CFFB0144815581FC01F5
:1016F000248135812417350778F080819181009706
:1017000059F0FB01608171816115710529F00E941A
:10171000891421E0892B09F020E0822F0895EBE164
:10172000F5E01382128288EE93E0A0E0B0E08483BB
:101730009583A683B7832BE031E03183208325ECAA
:1017400030E03587248724EC30E03787268720EC8B
:1017500030E0318B208B21EC30E0338B228B22EC7C
:1017600030E0358B248B26EC30E0378B268B118EC6
:10177000128E138E148EE8EBF5E0138212828483AE
:101780009583A683B7838DE191E091838083A4EC58
:10179000B5E080E48C931296FC93EE931197149627
:1017A0001C921E9213970895CF93DF93CDB7DEB7A7
:1017B00068970FB6F894DEBF0FBECDBF789484B59E
:1017C000826084BD84B5816084BD85B5826085BD3D
:1017D00085B5816085BD80916E00816080936E00CB
:1017E00010928100809181008260809381008091BD
:1017F000810081608093810080918000816080936E
:1018000080008091B10084608093B1008091B0002D
:1018100081608093B00080917A00846080937A0028
:1018200080917A00826080937A0080917A00816052
:1018300080937A0080917A00806880937A00109279
:10184000C100E0912B05F0912C0582E08083E091AE
:101850002705F09128051082E0912905F0912A05CD
:1018600080E1808310923305E0912F05F0913005DF
:1018700086E08083E0912D05F0912E0580818061C6
:101880008083E0912D05F0912E0580818860808312
:10189000E0912D05F0912E05808180688083E09194
:1018A0002D05F0912E0580818F7D80838EE291E061
:1018B0000E94FE0485EB91E00E94FE048EE291E01E
:1018C0000E94FE040E94B9028091C7059091C8054C
:1018D000009711F00E94051386E090E00E946912C3
:1018E0008C018091C5059091C6052091C405F80131
:1018F000208392838183138280E290E095838483A6
:101900001093C8050093C7050E94B90281E0F80151
:101910008383C8010E94FF038823E1F060E880E030
:101920000E94CD056AE070E080E090E00E94F50042
:1019300080E498E7ADE7B1E08093C9059093CA05CC
:10194000A093CB05B093CC0560E070E08AE794E407
:101950000E94F50580EC9CEFABE9B1E08093C905EE
:101960009093CA05A093CB05B093CC0560E070E0DE
:1019700088E492E40E94F50564E670E080E090E07F
:101980000E94F50090E080E00E9488058AED91E0D9
:101990000E94FE0482E092E00E94FE0483E292E054
:1019A0000E94FE048BE291E00E94AD0480E0A82E2C
:1019B00080E0B82E70900001711010C064E670E0F5
:1019C00080E090E00E94F500A114B10499F30E9418
:1019D000D101882379F30E940000ECCF8BE195E0E0
:1019E0000E94C501181619067CF76DE271E0CE0160
:1019F00043960E9455090E94770197FD1EC08A30C8
:101A00009105D9F089831A820F89188D0F5F1F4FB6
:101A1000B801CE0143960E940209882361F32B8905
:101A20003C898F89988DBE016F5F7F4F820F931F16
:101A30000E948214188F0F8BDECF1E861D86188A97
:101A40001F861A8A198A6B897C896115710531F0A4
:101A50004F89588DCE010D960E942A09CD84DE84CF
:101A6000C114D10439F009891A89760101151105CB
:101A700009F068C06DE271E0CE0101960E9455093F
:101A80006AE272E0CE0107960E945509AE014F5FEF
:101A90005F4FBE01695F7F4FCE010D960E94BC076C
:101AA000CE0107960E94B407CE0101960E94B407AA
:101AB0006DE271E0CE0101960E9455096CE271E081
:101AC000CE0107960E945509AE014F5F5F4FBE01E0
:101AD000695F7F4FCE010D960E94BC07CE0107962D
:101AE0000E94B407CE0101960E94B4078CE292E0F6
:101AF0000E94AD0449895A896D857E858BE195E008
:101B00000E94270188E392E00E94AD0469897A89E6
:101B100090E080E04AE00E94BA048BE291E00E94EB
:101B2000AD0489899A89892B09F042C00E94720507
:101B3000CE010D960E94B407CE0143960E94B407D1
:101B400043CF74014701FFEF8F1A9F0AF70180818D
:101B5000082E000C990B0E94920F892B91F70150CF
:101B600011090C0D1D1DF8018081082E000C990B28
:101B70000E94920F892B31F00E151F0518F00150AD
:101B80001109F1CFA8014F5F5F4F4E195F095A8BC2
:101B9000498BCE14DF0420F4B701C6010E94531410
:101BA000ED85FE8589899A89E80FF91F108262CF39
:101BB000ED85FE853097B1F08081833009F4B6CF92
:101BC0008B3109F4B3CF8F01F80181918F01882304
:101BD00049F0082E000C990B0E944B14F801319724
:101BE0008083F2CF6FE372E0CE010D960E9466090A
:101BF00081111CC064E472E0CE010D960E9466095A
:101C0000811114C066E472E0CE010D960E9466094F
:101C10008823D9F080919A0490919B0405968B3586
:101C200091050CF4D9C08DE692E00CC080919A0425
:101C300090919B040597863AFFEF9F070CF0CCC06C
:101C40008CE492E00E94FE0473CF65E672E0CE0160
:101C50000D960E9466098111DDCF67E672E0CE0124
:101C60000D960E946609882339F090E080E00E947A
:101C700088058CE892E0E6CF66E872E0CE010D962A
:101C80000E9466098111F1CF68E872E0CE010D96DD
:101C90000E946609882369F085EB92E00E94AD04FA
:101CA00080919A0490919B040E940C058CEA91E02B
:101CB000C9CF6FED72E0CE010D960E9466098111C9
:101CC000EBCF6EEA72E0CE0101960E945509BE018B
:101CD0006F5F7F4FCE010D960E94740B811116C06D
:101CE00068EC72E0CE0107960E945509BE01695F5B
:101CF0007F4FCE010D960E94740B7724739481114F
:101D000001C0712CCE0107960E94B407CE01019646
:101D10000E94B407772009F46FC0C988DA88C1141B
:101D2000D10409F405CF0D851E8560E270E0C8017D
:101D30000E946E14009709F4FBCE9C01201B310B0E
:101D40008901121613060CF0F3CE0F5F1F4FC01659
:101D5000D10628F4902F812F8601C92ED82E6DE24E
:101D600071E0CE0101960E945509E988FA880E15A6
:101D70001F0518F5CE14DF0408F47601ED85FE8505
:101D8000EE0DFF1DD08010826D857E85600F711F66
:101D90006115710521F1FB0101900020E9F73197F0
:101DA000AF01461B570BCE0101960E942A098D8573
:101DB0009E85E80EF91EF701D08289819A81C12C97
:101DC000D12C7601009719F00E94560F6B01CE01BD
:101DD00001960E94B407C6010E948805A9CE898198
:101DE0009A81009711F00E9405131A8219821E82AF
:101DF0001D821C821B82DBCF6BEC72E0CE010D9644
:101E00000E946609811192CE60ED72E0CE010D96BE
:101E10000E94660981118ACE65ED72E0CE010D96B1
:101E20000E946609811182CE6AED72E0CE010D96A4
:101E30000E94660981117ACE6CED72E0CE010D969A
:101E40000E94660981110BC061EE72E0CE010D9611
:101E50000E946609811103C083EE92E0F3CE83E114
:101E600093E00E94FE0481E393E00E94FE048BE372
:101E700093E00E94FE048EE593E00E94FE0482E857
:101E800093E00E94FE0488EA93E00E94FE048AEC3C
:101E900093E00E94FE0483EF93E00E94FE048AE137
:101EA00094E00E94FE0489E394E0CCCE1F93FC01F1
:101EB00099278827BC01E89411911032E9F3193071
:101EC00010F01E30C8F31B3251F01D3249F46894F3
:101ED00006C00E947D0F610F711D811D911D119122
:101EE00010531A30B0F33EF490958095709561953B
:101EF0007F4F8F4F9F4F1F910895592F482F372F96
:101F0000262F660F771F881F991F660F771F881F60
:101F1000991F620F731F841F951F660F771F881FFD
:101F2000991F089591110C946E10803219F0895008
:101F30008550C8F708950E94DD0F08F481E00895E8
:101F4000E89409C097FB3EF4909580957095619553
:101F50007F4F8F4F9F4F9923A9F0F92F96E9BB2709
:101F60009395F695879577956795B795F111F8CF85
:101F7000FAF4BB0F11F460FF1BC06F5F7F4F8F4FF0
:101F80009F4F16C0882311F096E911C0772321F0E6
:101F90009EE8872F762F05C0662371F096E8862F7E
:101FA00070E060E02AF09A95660F771F881FDAF7D5
:101FB000880F9695879597F90895990F0008550F02
:101FC000AA0BE0E8FEEF16161706E807F907C0F0BF
:101FD00012161306E407F50798F0621B730B840BC7
:101FE000950B39F40A2661F0232B242B252B21F4A1
:101FF00008950A2609F4A140A6958FEF811D811D41
:1020000008950E9414100C9488100E947A1038F0E1
:102010000E94811020F0952311F00C9471100C9403
:10202000771011240C94BC100E94991070F3959FA6
:10203000C1F3950F50E0551F629FF001729FBB27BF
:10204000F00DB11D639FAA27F00DB11DAA1F649F5B
:102050006627B00DA11D661F829F2227B00DA11D0E
:10206000621F739FB00DA11D621F839FA00D611D94
:10207000221F749F3327A00D611D231F849F600DB5
:10208000211D822F762F6A2F11249F5750409AF0DE
:10209000F1F088234AF0EE0FFF1FBB1F661F771F6A
:1020A000881F91505040A9F79E3F510580F00C9435
:1020B00071100C94BC105F3FE4F3983ED4F3869506
:1020C00077956795B795F795E7959F5FC1F7FE2BD5
:1020D000880F911D9695879597F9089599278827D8
:1020E000089597F99F6780E870E060E008959FEF9A
:1020F00080EC089500240A9416161706180609069F
:10210000089500240A94121613061406050608956D
:10211000092E0394000C11F4882352F0BB0F40F4F5
:10212000BF2B11F460FF04C06F5F7F4F8F4F9F4F35
:10213000089557FD9058440F551F59F05F3F71F0B7
:102140004795880F97FB991F61F09F3F79F087951E
:102150000895121613061406551FF2CF4695F1DFA7
:1021600008C0161617061806991FF1CF8695710537
:10217000610508940895E894BB2766277727CB016B
:1021800097F90895052E97FB1EF400940E94D9102C
:1021900057FD07D00E94181107FC03D04EF40C9491
:1021A000D91050954095309521953F4F4F4F5F4F37
:1021B000089590958095709561957F4F8F4F9F4FB3
:1021C00008952F923F924F925F926F927F928F92DB
:1021D0009F92AF92BF92CF92DF92EF92FF920F93B6
:1021E0001F93CF93DF93CDB7DEB7CA1BDB0B0FB6C0
:1021F000F894DEBF0FBECDBF09942A88398848887D
:102200005F846E847D848C849B84AA84B984C88412
:10221000DF80EE80FD800C811B81AA81B981CE0F09
:10222000D11D0FB6F894DEBF0FBECDBFED010895EE
:10223000A1E21A2EAA1BBB1BFD010DC0AA1FBB1FCA
:10224000EE1FFF1FA217B307E407F50720F0A21B3C
:10225000B30BE40BF50B661F771F881F991F1A94A9
:1022600069F760957095809590959B01AC01BD01D3
:10227000CF010895A29FB001B39FC001A39F700D2D
:10228000811D1124911DB29F700D811D1124911D7E
:1022900008950E943A11B7FF0895821B930B089589
:1022A000EE0FFF1F0590F491E02D09945058BB27C5
:1022B000AA270E946E110C9488100E947A1038F0A0
:1022C0000E94811020F039F49F3F19F426F40C94F9
:1022D00077100EF4E095E7FB0C947110E92F0E9443
:1022E000991058F3BA17620773078407950720F00F
:1022F00079F4A6F50C94BB100EF4E0950B2EBA2FD2
:10230000A02D0B01B90190010C01CA01A0011124FB
:10231000FF27591B99F0593F50F4503E68F11A16A7
:10232000F040A22F232F342F4427585FF3CF469538
:1023300037952795A795F0405395C9F77EF41F165A
:10234000BA0B620B730B840BBAF09150A1F0FF0F24
:10235000BB1F661F771F881FC2F70EC0BA0F621F10
:10236000731F841F48F4879577956795B795F79500
:102370009E3F08F0B0CF9395880F08F09927EE0F95
:102380009795879508950E94D7110C9488100E9404
:10239000811058F00E947A1040F029F45F3F29F034
:1023A0000C94711051110C94BC100C9477100E9475
:1023B000991068F39923B1F3552391F3951B550BAD
:1023C000BB27AA2762177307840738F09F5F5F4F08
:1023D000220F331F441FAA1FA9F335D00E2E3AF047
:1023E000E0E832D091505040E695001CCAF72BD05F
:1023F000FE2F29D0660F771F881FBB1F26173707B0
:102400004807AB07B0E809F0BB0B802DBF01FF27E1
:1024100093585F4F3AF09E3F510578F00C9471103D
:102420000C94BC105F3FE4F3983ED4F38695779507
:102430006795B795F7959F5FC9F7880F911D96959A
:10244000879597F90895E1E0660F771F881FBB1FF6
:10245000621773078407BA0720F0621B730B840BA3
:10246000BA0BEE1F88F7E09508950E94A11088F03E
:102470009F5798F0B92F9927B751B0F0E1F0660F48
:10248000771F881F991F1AF0BA95C9F714C0B13089
:1024900091F00E94BB10B1E008950C94BB10672F1F
:1024A000782F8827B85F39F0B93FCCF386957795B8
:1024B0006795B395D9F73EF49095809570956195A1
:1024C0007F4F8F4F9F4F08950E94DD0F08F48FEFCD
:1024D00008950F931F93CF93DF938230910510F4EB
:1024E00082E090E0E091CF05F091D00530E020E06F
:1024F000B0E0A0E0309799F42115310509F44AC005
:10250000281B390B24303105D8F58A819B81611550
:10251000710589F1FB0193838283FE0111C0408123
:1025200051810281138148175907E0F04817590774
:1025300099F4109761F012960C93129713961C93CE
:102540003296CF01DF91CF911F910F9108950093A3
:10255000CF051093D005F4CF2115310551F0421766
:10256000530738F0A901DB019A01BD01DF01F80131
:10257000C1CFEF01F9CF9093D0058093CF05CDCF98
:10258000FE01E20FF31F81939193225031093983A9
:102590002883D7CF2091CD053091CE05232B41F450
:1025A00020910301309104013093CE052093CD0595
:1025B00020910101309102012115310541F42DB71F
:1025C0003EB74091050150910601241B350BE09167
:1025D000CD05F091CE05E217F307A0F42E1B3F0BBB
:1025E0002817390778F0AC014E5F5F4F2417350785
:1025F00048F04E0F5F1F5093CE054093CD05819359
:1026000091939FCFF0E0E0E09CCFCF93DF930097D2
:10261000E9F0FC01329713821282A091CF05B091AC
:10262000D005ED0130E020E01097A1F42081318148
:10263000820F931F2091CD053091CE0528173907C1
:1026400009F061C0F093CE05E093CD05DF91CF9105
:102650000895EA01CE17DF07E8F54A815B819E0104
:1026600041155105B1F7E901FB83EA83499159917D
:10267000C40FD51FEC17FD0761F48081918102968C
:10268000840F951FE90199838883828193819B83BD
:102690008A83F0E0E0E012968D919C911397009769
:1026A000B9F52D913C911197CD010296820F931FA0
:1026B0002091CD053091CE052817390739F630978E
:1026C00051F51092D0051092CF05B093CE05A0938E
:1026D000CD05BCCFD383C28340815181840F951F28
:1026E000C817D90761F44E5F5F4F88819981480F01
:1026F000591F518340838A819B8193838283211553
:10270000310509F0B0CFF093D005E093CF059ECF0F
:10271000FD01DC01C0CF13821282D7CFB0E0A0E070
:10272000E4E9F3E10C94E3108C01009751F4CB0140
:102730000E9469128C01C801CDB7DEB7E0E10C94AC
:10274000FF10FC01E60FF71F9C0122503109E21730
:10275000F30708F49DC0D901CD91DC911197C617FC
:10276000D70798F0C530D10530F3CE01049786170E
:10277000970708F3C61BD70B2297C193D1936D938C
:102780007C93CF010E940513D6CF5B01AC1ABD0A22
:102790004C018C0E9D1EA091CF05B091D005512CFF
:1027A000412CF12CE12C109731F58091CD059091C1
:1027B000CE058815990509F05CC04616570608F045
:1027C00058C08091010190910201009741F48DB7AA
:1027D0009EB74091050150910601841B950BE817A7
:1027E000F90708F055C0F093CE05E093CD05F90147
:1027F00071836083A0CF8D919C91119712966C90FC
:10280000129713967C901397A815B90559F56C018A
:1028100042E0C40ED11CCA14DB0420F1AC014A19F9
:102820005B09DA011296159780F0628273825183F8
:102830004083D9016D937C93E114F10471F0D701C9
:102840001396FC93EE93129776CF22968C0F9D1FD2
:10285000F90191838083F301EFCFF093D005E093EA
:10286000CF0569CF4816590608F42C017D01D30124
:102870009ACFCB010E9469127C01009749F0AE010A
:10288000B8010E945314C8010E940513870153CF59
:1028900010E000E050CF9111089581568A5108F45C
:1028A000805285580895FB01DC0102C001900D9211
:1028B00041505040D8F708956817790768F4FB0134
:1028C000DC01E40FF51FA40FB51F02C002900E92A9
:1028D00041505040D8F708950C945314FC01819155
:1028E000861721F08823D9F7992708953197CF01CA
:1028F0000895FB01DC018D91019080190110D9F33D
:10290000990B0895FB01DC0101900D920020E1F785
:102910000895FB01DC014150504030F08D91019051
:10292000801919F40020B9F7881B990B0895FB0151
:1029300051915523A9F0BF01DC014D91451741117B
:10294000E1F759F4CD010190002049F04D91401577
:102950004111C9F3FB014111EFCF81E090E00197F4
:062960000895F894FFCF7A
:10296600010000D105800000000000070227015485
:10297600015402C5016301B701000000007B044E4B
:1029860004AA0424044704340425040D0A003D3D2A
:102996003D3D3D3D3D3D3D3D3D3D3D3D3D3D3D3D61
:1029A6003D3D3D3D3D3D3D3D3D3D3D3D3D3D3D3D51
:1029B6003D3D3D00536572766F2053544F50504550
:1029C60044202D2050574D2064697361626C656404
:1029D6000050726F6772616D2068616C7465642E59
:1029E6002052657365742041726475696E6F207438
:1029F6006F20726573746172742E00536572766F00
:102A0600206D6F76656420746F3A200020646567D8
:102A16007265657300504341393638352053657207
:102A2600766F20436F6E74726F6C6C657220537490
:102A3600617274696E672E2E2E00536572766F2052
:102A4600696E697469616C697A6564206174206F66
:102A5600726967696E2028302064656772656573E0
:102A66002900547970652048454C5020666F7220C5
:102A7600617661696C61626C6520636F6D6D616E14
:102A8600647300526561647921000D0052656365C7
:102A9600697665643A205B005D206C656E3D004C8E
:102AA600454654004C005249474854004552524F3F
:102AB600523A204D696E20616E676C6520726561C1
:102AC60063686564005200524553455400455252AE
:102AD6004F523A204D617820616E676C65207265B1
:102AE6006163686564003000504F53005365727629
:102AF6006F20726573657420746F206F72696769E1
:102B06006E20283020646567726565732900414E22
:102B1600474C45200043757272656E7420706F7362
:102B26006974696F6E3A200041200053544F50007B
:102B360045584954005155495400510048454C5098
:102B46000048004552524F523A20556E6B6E6F77D1
:102B56006E20636F6D6D616E642E205479706520F2
:102B660048454C5020666F7220636F6D6D616E64D0
:102B7600732E003D3D3D20504341393638352053B4
:102B86006572766F20436F6E74726F6C203D3D3DAB
:102B960000436F6D6D616E64733A0020204C4546AC
:102BA600542F4C2020202D20526F746174652035DF
:102BB6002064656772656573206C65667400202005
:102BC60052494748542F5220202D20526F74617469
:102BD600652035206465677265657320726967686C
:102BE6007400202052455345542F3020202D20526A
:102BF600657475726E20746F206F726967696E20D6
:102C060028302064656729002020504F532F50201C
:102C16002020202D204765742063757272656E74BE
:102C260020706F736974696F6E002020414E474CA7
:102C360045206E20202D204D6F766520746F206113
:102C46006E676C65206E20282D393020746F203910
:102C5600302900202053544F502F455849542F51A6
:102C66005549542F51202D2053746F70207365726F
:102C7600766F20262068616C740020205B456E7498
:102C860065725D20202D2053746F702073657276F7
:102C96006F20262068616C7400202048454C502F18
:102CA600482020202D2053686F7720746869732090
:062CB60068656C7000006F
:00000001FF
