:020000040800F2
:1000000000500020191C0008691C0008691C000829
:10001000691C0008691C0008691C00080000000039
:10002000000000000000000000000000691C000843
:100030000000000000000000691C0008691C0008A6
:10004000691C0008691C0008691C0008691C00087C
:10005000691C0008691C0008691C0008691C00086C
:10006000691C0008691C0008691C0008691C00085C
:10007000691C0008691C0008691C0008691C00084C
:10008000691C0008691C0008691C0008691C00083C
:10009000691C0008691C0008691C0008691C00082C
:1000A000691C0008691C0008691C0008691C00081C
:1000B000691C0008691C0008691C0008691C00080C
:1000C000691C0008691C0008691C0008691C0008FC
:1000D000691C0008691C0008691C0008691C0008EC
:1000E000691C0008691C000800000000691C000869
:1000F000691C0008691C0008691C0008691C0008CC
:10010000691C0008691C0008691C0008691C0008BB
:10011000691C0008691C0008691C0008691C0008AB
:10012000691C0008691C0008691C0008691C00089B
:1001300010B5054C237833B9044B13B10448AFF321
:1001400000800123237010BDD006002000000000B5
:100150005858000808B5034B1BB103490348AFF3D7
:10016000008008BD00000000D40600205858000898
:10017000034613F8012B002AFBD1181A01387047E7
:1001800081F0004102E000BF83F0004330B54FEA48
:1001900041044FEA430594EA050F08BF90EA020FB5
:1001A0001FBF54EA000C55EA020C7FEA645C7FEA48
:1001B000655C00F0E2804FEA5454D4EB5555B8BF6B
:1001C0006D420CDD2C4480EA020281EA030382EADC
:1001D000000083EA010180EA020281EA0303362D6E
:1001E00088BF30BD11F0004F4FEA01314FF4801C41
:1001F0004CEA113102D0404261EB410113F0004F53
:100200004FEA03334CEA133302D0524263EB430309
:1002100094EA050F00F0A780A4F10104D5F1200EA7
:100220000DDB02FA0EFC22FA05F2801841F1000102
:1002300003FA0EF2801843FA05F359410EE0A5F1D6
:1002400020050EF1200E012A03FA0EFC28BF4CF007
:10025000020C43FA05F3C01851EBE37101F00045BD
:1002600007D54FF0000EDCF1000C7EEB00006EEBCA
:100270000101B1F5801F1BD3B1F5001F0CD3490854
:100280005FEA30004FEA3C0C04F101044FEA4452AB
:1002900012F5800F80F09A80BCF1004F08BF5FEA32
:1002A000500C50F1000041EB045141EA050130BD12
:1002B0005FEA4C0C404141EB0101013C28BFB1F524
:1002C000801FE9D291F0000F04BF01460020B1FA6F
:1002D00081F308BF2033A3F10B03B3F120020CDA42
:1002E0000C3208DD02F1140CC2F10C0201FA0CF020
:1002F00021FA02F10CE002F11402D8BFC2F1200C85
:1003000001FA02F120FA0CFCDCBF41EA0C0190403A
:10031000E41AA2BF01EB0451294330BD6FEA040483
:100320001F3C1CDA0C340EDC04F11404C4F120026E
:1003300020FA04F001FA02F340EA030021FA04F380
:1003400045EA030130BDC4F10C04C4F1200220FAD7
:1003500002F001FA04F340EA0300294630BD21FA15
:1003600004F0294630BD94F0000F83F4801306BFDB
:1003700081F480110134013D4EE77FEA645C18BFCF
:100380007FEA655C29D094EA050F08BF90EA020F66
:1003900005D054EA000C04BF1946104630BD91EA5E
:1003A000030F1EBF0021002030BD5FEA545C05D161
:1003B0004000494128BF41F0004130BD14F58004A0
:1003C0003CBF01F5801130BD01F0004545F0FE4114
:1003D00041F470014FF0000030BD7FEA645C1ABF49
:1003E000194610467FEA655C1CBF0B46024650EA80
:1003F000013406BF52EA033591EA030F41F40021AC
:1004000030BD00BF90F0000F04BF0021704730B531
:100410004FF4806404F132044FF000054FF0000106
:1004200050E700BF90F0000F04BF0021704730B5C7
:100430004FF4806404F1320410F0004548BF40429C
:100440004FF000013EE700BF42004FEAE2014FEAF1
:1004500031014FEA02701FBF12F07F4393F07F4FCC
:1004600081F06051704732F07F4208BF704793F0CF
:100470007F4F04BF41F40021704730B54FF46074E2
:1004800001F0004521F000411CE700BF50EA0102E5
:1004900008BF704730B54FF000050AE050EA01028E
:1004A00008BF704730B511F0004502D5404261EBFE
:1004B00041014FF4806404F132045FEA915C3FF43F
:1004C000D8AE4FF003025FEADC0C18BF03325FEADC
:1004D000DC0C18BF033202EBDC02C2F1200300FA8D
:1004E00003FC20FA02F001FA03FE40EA0E0021FAB2
:1004F00002F11444BDE600BF70B54FF0FF0C4CF4A0
:10050000E06C1CEA11541DBF1CEA135594EA0C0F51
:1005100095EA0C0F00F0DEF82C4481EA030621EA8C
:100520004C5123EA4C5350EA013518BF52EA0335C7
:1005300041F4801143F4801338D0A0FB02CE4FF079
:100540000005E1FB02E506F00042E0FB03E54FF0A9
:100550000006E1FB03569CF0000F18BF4EF0010EA1
:10056000A4F1FF04B6F5007F64F5407404D25FEA9D
:100570004E0E6D4146EB060642EAC62141EA555150
:100580004FEAC52040EA5E504FEACE2EB4F1FD0C92
:1005900088BFBCF5E06F1ED8BEF1004F08BF5FEA10
:1005A000500E50F1000041EB045170BD06F00046C2
:1005B00046EA010140EA020081EA0301B4EB5C046F
:1005C000C2BFD4EB0C0541EA045170BD41F4801167
:1005D0004FF0000E013C00F3AB8014F1360FDEBF8C
:1005E000002001F0004170BDC4F10004203C35DA68
:1005F0000C341BDC04F11404C4F1200500FA05F3EB
:1006000020FA04F001FA05F240EA020001F000428B
:1006100021F0004110EBD37021FA04F642EB060101
:100620005EEA430E08BF20EAD37070BDC4F10C042B
:10063000C4F1200500FA04F320FA05F001FA04F2EF
:1006400040EA020001F0004110EBD37041F10001DB
:100650005EEA430E08BF20EAD37070BDC4F12005E6
:1006600000FA05F24EEA020E20FA04F301FA05F24E
:1006700043EA020321FA04F001F0004121FA04F2F6
:1006800020EA020000EBD3705EEA430E08BF20EAC6
:10069000D37070BD94F0000F0FD101F00046400000
:1006A00041EB010111F4801F08BF013CF7D041EA82
:1006B000060195F0000F18BF704703F00046520086
:1006C00043EB030313F4801F08BF013DF7D043EA57
:1006D0000603704794EA0C0F0CEA135518BF95EA0D
:1006E0000C0F0CD050EA410618BF52EA4306D1D194
:1006F00081EA030101F000414FF0000070BD50EAB3
:10070000410606BF1046194652EA430619D094EA3C
:100710000C0F02D150EA013613D195EA0C0F05D126
:1007200052EA03361CBF104619460AD181EA03017A
:1007300001F0004141F0FE4141F470014FF0000032
:1007400070BD41F0FE4141F4780170BD70B54FF0CD
:10075000FF0C4CF4E06C1CEA11541DBF1CEA13554D
:1007600094EA0C0F95EA0C0F00F0A7F8A4EB05042F
:1007700081EA030E52EA03354FEA013100F0888026
:100780004FEA03334FF0805545EA131343EA1263EF
:100790004FEA022245EA111545EA10654FEA0026A4
:1007A0000EF000419D4208BF964244F1FD0404F55D
:1007B000407402D25B084FEA3202B61A65EB0305B9
:1007C0005B084FEA32024FF480104FF4002CB6EB76
:1007D000020E75EB030E22BFB61A754640EA0C00F6
:1007E0005B084FEA3202B6EB020E75EB030E22BF36
:1007F000B61A754640EA5C005B084FEA3202B6EB77
:10080000020E75EB030E22BFB61A754640EA9C0035
:100810005B084FEA3202B6EB020E75EB030E22BF05
:10082000B61A754640EADC0055EA060E18D04FEAC3
:10083000051545EA16754FEA06164FEAC30343EA63
:1008400052734FEAC2025FEA1C1CC0D111F4801F30
:100850000BD141EA00014FF000004FF0004CB6E729
:1008600011F4801F04BF01430020B4F1FD0C88BFC8
:10087000BCF5E06F3FF6AFAEB5EB030C04BFB6EBD3
:10088000020C5FEA500C50F1000041EB045170BDC6
:100890000EF0004E4EEA113114EB5C04C2BFD4EBF3
:1008A0000C0541EA045170BD41F480114FF0000E77
:1008B000013C90E645EA060E8DE60CEA135594EAF3
:1008C0000C0F08BF95EA0C0F3FF43BAF94EA0C0FF6
:1008D0000AD150EA01347FF434AF95EA0C0F7FF46B
:1008E00025AF104619462CE795EA0C0F06D152EABF
:1008F00003353FF4FDAE1046194622E750EA4106A3
:1009000018BF52EA43067FF4C5AE50EA41047FF4B3
:100910000DAF52EA43057FF4EBAE12E74FF0FF3C18
:1009200006E000BF4FF0010C02E000BF4FF0010CE9
:100930004DF804CD4FEA410C7FEA6C5C4FEA430C62
:1009400018BF7FEA6C5C1BD001B050EA410C0CBFB1
:1009500052EA430C91EA030F02BF90EA020F002013
:10096000704710F1000F91EA030F58BF994208BF7A
:1009700090422CBFD8176FEAE37040F00100704737
:100980004FEA410C7FEA6C5C02D150EA013C07D18E
:100990004FEA430C7FEA6C5CD6D152EA033CD3D0D9
:1009A0005DF8040B704700BF8446104662468C46D3
:1009B0001946634600E000BF01B5FFF7B7FF002806
:1009C00048BF10F1000F01BD4DF808EDFFF7F4FF2F
:1009D0000CBF012000205DF808FB00BF4DF808EDBA
:1009E000FFF7EAFF34BF012000205DF808FB00BFDD
:1009F0004DF808EDFFF7E0FF94BF012000205DF8FF
:100A000008FB00BF4DF808EDFFF7CEFF94BF0120B3
:100A100000205DF808FB00BF4DF808EDFFF7C4FFAC
:100A200034BF012000205DF808FB00BF4FEA410CF5
:100A30007FEA6C5C02D150EA013C0AD14FEA430CD8
:100A40007FEA6C5C02D152EA033C02D14FF0000015
:100A500070474FF0010070474FEA410212F5001253
:100A600015D211D56FF47873B3EB625212D94FEAF5
:100A7000C12343F0004343EA505311F0004F23FADF
:100A800002F018BF404270474FF00000704750EA34
:100A9000013005D111F0004008BF6FF000407047F1
:100AA0004FF00000704700BF53B94AB9002908BF92
:100AB00000281CBF4FF0FF314FF0FF3000F08CB921
:100AC000ADF1080C6DE904CE00F006F8DDF804E0A5
:100AD000DDE9022304B070472DE9F047089D8E46FA
:100AE00004468846002B4AD18A42174662D9B2FA98
:100AF00082F64EB1C6F1200301FA06F820FA03F39C
:100B0000B74043EA0808B4404FEA174EB8FBFEF17D
:100B10001FFA87FC0EFB118801FB0CF2230C43EA41
:100B200008439A4209D9FB1801F1FF3080F0EB80AD
:100B30009A4240F2E88002393B449A1AB2FBFEF036
:100B40000EFB102200FB0CFCA3B243EA02439C45BF
:100B500009D9FB1800F1FF3280F0D7809C4540F2A4
:100B6000D4803B44023840EA01400021A3EB0C034F
:100B70001DB10022F340C5E90032BDE8F0878B4289
:100B800005D90DB1C5E9000100210846F5E7B3FA22
:100B900083F1002946D1734502D3824200F20881D5
:100BA000841A6EEB030201209046002DE5D0C5E9C2
:100BB0000048E2E7002A00F09180B2FA82F6002EA7
:100BC00040F0A5808A1A0121030C4FEA174E80B22B
:100BD000BCB2B2FBFEFC0EFB1C2243EA024304FB48
:100BE0000CF29A4207D9FB180CF1FF3802D29A4254
:100BF00000F2E380C4469B1AB3FBFEF20EFB1233F5
:100C000002FB04F440EA03439C4207D9FB1802F1BB
:100C1000FF3002D29C4200F2CD8002461B1B42EA0A
:100C20000C40A5E7C1F120068B4022FA06F71F43CE
:100C30002EFA06FA4FEA1749BAFBF9F80EFA01FE46
:100C400020FA06F309FB18AA1FFA87FC43EA0E03F1
:100C500000FA01FE08FB0CF01C0C44EA0A44A04216
:100C600002FA01F20AD93C1908F1FF3A80F09E809D
:100C7000A04240F29B80A8F102083C44241A98B29A
:100C8000B4FBF9F309FB134403FB0CFC40EA0444F6
:100C9000A44509D93C1903F1FF3080F08580A445B3
:100CA00040F28280023B3C4443EA0840A4EB0C043F
:100CB000A0FB028C64454346E14664D361D05DB13C
:100CC000BEEB030264EB090404FA06F622FA01F310
:100CD0001E43CC40C5E9006400214EE7B1FBF2FCA5
:100CE000010C41EA0E4180B240EA01423B46B1FBB1
:100CF000F7F138463C46B846BE462026A2EB08022D
:100D000041EA0C4165E7014617E710462BE7C6F1BB
:100D100020012EFA01FCB7400EFA06FE20FA01F17E
:100D200041EA0E014FEA174EBCFBFEF8BCB20EFBC7
:100D300018CC08FB04F90A0C42EA0C42B040914579
:100D40004FEA104380B23ED9BA1808F1FF3C01D2F5
:100D500091451FD8A2EB0902B2FBFEF909FB04F88A
:100D60000EFB192A8AB242EA0A42424529D2BA182F
:100D700009F1FF31C2D24245C0D2A9F102013A4481
:100D8000BCE7C6459BD2B8EB02036CEB070C0138FD
:100D9000E14694E7A7EB09094A44B2FBFEF9A8F142
:100DA000020C09FB04F8DBE703467DE7D04665E764
:100DB0000846FAE63B44023A30E7ACF1020C3B4409
:100DC00019E749469AE7A2EB0902B2FBFEF9C446CD
:100DD00009FB04F8C4E700BF704700BF002310B54B
:100DE0000446C0E90033C0E904338360818143666F
:100DF000C2818361194608225C3000F0F4F80D4B83
:100E0000E46123620C4B63620C4BA3620C4BE36204
:100E10000C4B9C4206D003F16802944202D0D033BE
:100E20009C4205D104F15800BDE8104000F04EB9D5
:100E300010BD00BF610F0008830F0008BB0F000842
:100E4000DF0F0008EC060020024A0349034800F0C7
:100E500069B800BF00000020AD1700081000002096
:100E600041680C4B10B59942044601D000F09EFC3D
:100E7000A168094B994202D0204600F097FCE16836
:100E8000064B994204D02046BDE8104000F08EBCCD
:100E900010BD00BFEC06002054070020BC07002056
:100EA00010B50B4B0B4C0C4A20461A600421002253
:100EB000FFF794FF04F1680001220921FFF78EFF7C
:100EC00004F1D0000222BDE810401221FFF786BFD6
:100ED00024080020EC060020490E0008014800F01C
:100EE000F7B800BF2E080020014800F0F2B800BF9C
:100EF0002E08002010B50446FFF7F0FF636B1BB10E
:100F0000BDE81040FFF7F0BF044B6363044B1B6860
:100F1000002BF5D1FFF7C4FFF2E700BF610E000818
:100F2000240800202DE9F843074688461446002689
:100F3000D4E90195B9F1010905D52468002CF7D150
:100F40003046BDE8F883AB89012B07D9B5F90E30DF
:100F5000013303D029463846C04706436835E9E7E0
:100F600010B50C46B1F90E1000F068F80028ABBFC0
:100F7000236DA3891B1823F48053ACBF2365A38181
:100F800010BD2DE9F0411F468B890546DB050C4657
:100F9000164605D502230022B1F90E1000F03CF8E8
:100FA000A389324623F48053A38128463B46B4F9F3
:100FB0000E10BDE8F04100F053B810B50C46B1F981
:100FC0000E1000F029F8431CA38915BF206523F4F7
:100FD000805343F48053A38118BFA38110BDB1F99E
:100FE0000E1000F009B803460244934200D1704746
:100FF00003F8011BF9E7000038B50023054D04464E
:1010000008462B6000F0D8FD431C02D12B6803B1C9
:10101000236038BD2808002038B50446084611462C
:101020000022054D2A601A4600F0D0FD431C02D173
:101030002B6803B1236038BD2808002038B504466A
:10104000084611460022054D2A601A4600F096FD1A
:10105000431C02D12B6803B1236038BD280800204F
:1010600038B50446084611460022054D2A601A4646
:1010700000F094FD431C02D12B6803B1236038BDFE
:101080002808002070B500260C4D0D4C641BA410E0
:10109000A64209D104F0E0FB00260A4D0A4C641B6D
:1010A000A410A64205D170BD55F8043B98470136FF
:1010B000EEE755F8043B98470136F2E7145C000868
:1010C000145C0008145C00081C5C00087047704742
:1010D00070477047024B13B1024800F005B87047E3
:1010E00000000000CD190008002301461A461846EA
:1010F00000F08CBC2DE9F84306460820894600F034
:1011000079FC8046234F304600F044FBBB685D68A5
:1011100025F00305A5F11104A4EB09044444B4FB34
:10112000F8F4013C08FB04F4A04505DD304600F06E
:1011300037FB0020BDE8F8830021304600F036FC84
:10114000BB682B449842F1D13046614200F02EFC3E
:10115000013010D10021304600F028FCBA68831A13
:101160000F2BE3DD0C4943F0010309685360401A7B
:101170000A490860DAE7BB68084A2D1B45F00105FB
:101180005D60136830461B1B136000F009FB0120F3
:10119000D0E700BF5C01002054010020340800208B
:1011A000F8B504460F46002900F0B18000F0F2FACD
:1011B00057F8042C564D22F00100A7F1080303EB69
:1011C000000CA968DCF80460614526F0030602F013
:1011D00001021BD106443AB957F8082C9B1A164451
:1011E000D3E90212CA60916046F001025A60AB6016
:1011F000484B1B68B34204D8474B20461968FFF799
:1012000079FF2046BDE8F84000F0CABACCF8046087
:10121000002A38D157F8081C05F108075B1A084462
:101220009968B94231D0DF68CF60B9600CEB060134
:101230004968C9070BD4DCF8081030443ABB374E74
:10124000B14224D10122C5E90433C3E9021140F0BF
:10125000010159601850002AD3D1B0F5007F1BD28C
:101260000121C20840098140686801320143696078
:1012700055F8320005EBC2010839C3E9020145F80F
:101280003230C360BDE70022D0E70122CEE7DCF8B0
:101290000C60CE60B160DAE7B0F5206F4FEA502203
:1012A00014D282093832511C55F8311005EBC206B0
:1012B0008E4225D10120921000FA02F268680243A2
:1012C0006A60C3E90216B360CB609AE7142A01D8BA
:1012D0005B32E8E7542A02D8020B6E32E3E7B2F53C
:1012E000AA7F02D8C20B7732DDE740F254518A421E
:1012F00096BF820C7E227C32D5E789688E4204D06C
:101300004A6822F003028242F7D8CE68D9E7F8BDD6
:101310005C010020580100206408002064010020C6
:1013200001F10B03162B2DE9F74F054606D933F0D3
:10133000070704D50C232B600024A1E11027B94234
:10134000F8D8284600F026FAB7F5FC7FAE4E37D223
:1013500007F1080232445468A2F108018C424FEAB6
:10136000D70302D1D468A24210D0D4E90212636834
:10137000CA6023F00303916023445A6842F00102DB
:101380005A60284600F00CFA083479E102333469D7
:101390009E498C4277D0626822F0030CACEB0700C8
:1013A0000F2848DDE21940F0010347F001076760AC
:1013B000C6E90422C2E90211536044F80C00E0E7D8
:1013C0007B0A2AD0042B12D8BB0938335A1C06EBEF
:1013D000C2025468A2F1080C644506D0626822F08B
:1013E0000302D01B0F281CDD013B0133CFE7142B78
:1013F00001D85B33EAE7542B02D83B0B6E33E5E7A9
:10140000B3F5AA7F02D8FB0B7733DFE740F25452E3
:10141000934204D8BB0C7C33D8E73F23D6E77E2326
:10142000D4E70028E16804DBA368D9608B60A318C7
:10143000A3E70C46D0E70028C6E9041107DBA44463
:10144000DCF8043043F00103CCF8043099E7BCF534
:10145000007F706880F093804FEADC024FEA5C1EE8
:101460004FF0010C0CFA0EFC4CEA0000013256F869
:1014700032C0706006EBC2000838C4E902C046F80A
:101480003240CCF80C4001229810824070689042A3
:1014900026D3104206D123F003035200104203F179
:1014A0000403FAD006EBC308C1469E46D9F80C40A7
:1014B0004C4540F0B7800EF1010E1EF0030F09F10C
:1014C0000809F3D1980740F0E180736823EA02032A
:1014D000736070685200904202D3002A40F0E280AC
:1014E000D6F808A0DAF8043023F00309B94504D38C
:1014F000A9EB07020F2A00F34081454B0820196829
:101500000AEB090B10313944019100F073FA414A9A
:1015100001991368804601331FBF01F1FF3109189B
:10152000434219402846019100F040FA421C04460B
:1015300000F0F68083450199364A02D9B24540F061
:10154000EF80354BA345186808F1FF3C084418604C
:1015500040F0AA801BEA0C0F40F0A680B268494414
:1015600041F0010151602D4A1B6811688B4288BF10
:1015700013602B4A11688B4288BF1360D0E0BCF522
:10158000206F4FEA5C2218D24FEA9C12383202F1E7
:10159000010E56F83EE006EBC208F0452BD14FF0A5
:1015A000010C92100CFA02F202437260C4E902E8E4
:1015B000C8F80840CEF80C4065E7142A01D85B3221
:1015C000E5E7542A03D84FEA1C326E32DFE7B2F562
:1015D000AA7F03D84FEADC327732D8E740F2545E74
:1015E000724596BF4FEA9C427E227C32CFE7DEF8FE
:1015F00008E0F04505D0DEF8042022F00302624541
:10160000F5D8DEF80C80D1E75C01002064010020F1
:1016100064080020540100203408002060080020E5
:101620005C0800206068D4F80CC020F00300A0EB38
:10163000070ABAF10F0F12DDA368E21947F001079C
:101640006760C3F80CC0CCF808304AF00103C6E963
:101650000422C2E90211536044F800A091E6BAF1F5
:10166000000F11DB2044436843F00103436054F84A
:10167000083F2846C3F80CC0CCF8083000F090F8BA
:10168000204603B0BDE8F08F644611E758F808091A
:10169000013B40453FF416AF1BE7043352001042B4
:1016A000FBD0FFE67346FAE7D2F800E0BEF1FF3F59
:1016B0001BBFA4EB0B0B0BEB000214601A6014F0C1
:1016C000070B0EBF5846CBF108002418621802EA37
:1016D0000C018044A8EB010808EA0C0841462846A2
:1016E000019200F063F9431C019A294B07D1BBF129
:1016F000000F23D04FF00008ABF1080010441A6827
:10170000001B4044424440F00100B245B4601A60FE
:1017100060603FF428AFB9F10F0F12D80123636066
:10172000B3685B6823F00303BB42A3EB070201D35A
:101730000F2A22DC284600F033F8FDE51046D84693
:10174000DDE70521DAF80420A9F10C0929F00709E1
:1017500002F0010242EA0902CAF80420B9F10F0FAF
:101760000AEB0902C2E901117FF6FDAE28460AF133
:101770000801FFF715FD064BF5E6B46847F00103D5
:1017800042F0010227446360B7607A60F9E500BF68
:10179000340800200148FFF79BBC00BF2C08002044
:1017A0000148FFF796BC00BF2C08002070B5054625
:1017B0000C46B9B118B1436B0BB9FFF79BFB626ED6
:1017C000B4F90C30D60704D498050ED4A06DFFF7F9
:1017D0007FFCB4F90C3043B9636ED90702D4A06D15
:1017E000FFF777FC0026304670BD2146284600F002
:1017F00033F8E36A064633B12846E1699847002882
:10180000B8BF4FF0FF36A3891A0603D528462169D1
:10181000FFF7C6FC216B41B104F14003994202D0AD
:101820002846FFF7BDFC00232363616C21B12846E5
:10183000FFF7B6FC00236364FFF750FB0023A3818E
:10184000636EDB0702D4A06DFFF743FCA06DFFF7CA
:101850003EFCFFF749FBC6E7F8B50546B1F90C00B9
:101860000C46060757D440F400638B814B68002B6D
:1018700002DCCB6B002B4CDDA66A002E49D0002386
:1018800010F480522F68E1692B6034D0226DA38957
:10189000590705D56368D21A236B0BB1E36BD21AD3
:1018A00000232846A66AE169B047431C06D12A688E
:1018B0001D2A47D8294BD340DE0743D5B4F90C3055
:1018C00023F40062A281002262602269D9042260AE
:1018D00004D5421C01D12B6803B92065216B2F6010
:1018E000B9B104F14003994202D02846FFF758FCF1
:1018F000002323630DE001232846B0470246501C15
:10190000C5D12B68002BC2D01D2B01D0162B19D1AD
:101910002F6000201DE00F69002FFAD0830718BF49
:1019200000230E6808BF4B69F61B0F608B60002E0A
:10193000EFDD33463A462846E169D4F824C0E04753
:10194000002807DC4FF0FF30B4F90C3043F04003BF
:10195000A381F8BD0744361AE9E700BF0100402023
:1019600038B50C46054618B1436B0BB9FFF7C2FA00
:10197000B4F90C00B8B1636EDB0704D4810502D45E
:10198000A06DFFF7A5FB28462146FFF765FF636EB4
:101990000546DA0705D4A3899B0502D4A06DFFF79D
:1019A00098FB284638BD0546FBE7000038B5002304
:1019B000054D044608462B6000F00AF9431C02D18D
:1019C0002B6803B1236038BD2808002038B5074DC7
:1019D000074C641BA4101CB9BDE8384003F042BF9B
:1019E000013C55F824309847F5E700BF1C5C00081F
:1019F000205C0008082808B506D000F047F8162338
:101A000003604FF0FF3008BD8020FCE72DE9F04770
:101A1000DFF86CA00646DAF8000098460F469146BB
:101A2000FFF756FB174B1C680CB9174C1C60656818
:101A3000DAF800001F2D05DDFFF74BFB4FF0FF30FC
:101A4000BDE8F0879EB1012204EB8501C1F88890C2
:101A5000D4F88831AA401343C4F88831022EC1F863
:101A6000088102BFD4F88C311343C4F88C316B1C4D
:101A70000235636044F82570FFF72BFB0020DFE799
:101A8000500100203008002068080020014B186831
:101A9000704700BF0C0000200B4A936943F0040319
:101AA00093610A4B5A6822F0F0025A605A6842F079
:101AB00020025A605A6822F00F025A605A6842F0B7
:101AC00004025A60704700BF001002400008014045
:101AD00082B0124B4FF400721A610023019302E0AE
:101AE000019B01330193019B4F2BF9DD0B4B4FF40D
:101AF00000725A6147F23050084B9B6813F4807FA4
:101B000001D10138F8D138B1002000E00130034B99
:101B10009B6813F4807FF9D102B070470008014040
:101B200000B583B0FFF7B8FFFFF7D2FF084BA3FB68
:101B300000314909074800F099F800230193019A00
:101B4000054B9A42F0DC019B01330193F7E700BF9C
:101B500009CB3D8D705800089F8601000120704719
:101B600008B5FFF793FF162303604FF0FF3008BD61
:101B700008B54FF0FF31FFF7F3FFFEE770B50C46F5
:101B80001646002506E0AFF30080214601F8010B60
:101B900001350C46B542F6DB304670BD70B50C46DB
:101BA0001646002504E014F8010BAFF30080013560
:101BB000B542F8DB304670BD4FF0FF3070474FF450
:101BC00000534B6000207047012070470020704791
:101BD00010B503460C4A0D490D48006840B10C4849
:101BE00000680344521A934206D8094A136010BD94
:101BF0000748084C0460F2E7FFF748FF0C23036036
:101C00004FF0FF30F3E700BF005000200004000059
:101C1000F8090020000A00200D488546AFF3008037
:101C20000C480D490D4A002302E0D458C450043337
:101C3000C4188C42F9D30A4A0A4C002301E013600D
:101C40000432A242FBD3FFF71DFAFFF769FFFEE75C
:101C50000050002000000020D0060020205C00087A
:101C6000D0060020FC090020FEE700000FB407B5F5
:101C7000064904AB086853F8042B8168019300F00F
:101C800007F803B05DF804EB04B070470C000020C7
:101C90002DE9F04FD7B08A4691461C461F46079063
:101CA00001F04AFC036818461993FEF761FA079B96
:101CB000119023B15B6B13B90798FFF71BF9DAF8A2
:101CC0006430DE0707D4BAF80C309D0503D4DAF887
:101CD0005800FFF7FDF9BAF90C30980409D4DAF886
:101CE000642043F4005322F40052AAF80C30CAF8DE
:101CF0006420DAF86430990408D5DA0715D54FF076
:101D0000FF331393139857B0BDE8F08FBAF80C3037
:101D10001B0702D5DAF8103083B95146079801F055
:101D200087FB58B1DAF86430E7E7BAF80C309E0563
:101D3000E5D4DAF85800FFF7CCF9E0E7BAF90C304F
:101D400003F01A020A2A16D1BAF90E20002A12DB71
:101D5000DAF86420D50705D4980503D4DAF85800DA
:101D6000FFF7B7F923464A465146079857B0BDE8F2
:101D7000F04F01F0C3B900230022CDE92B330893C3
:101D80000023CDE90E2300232DAC2A941E931B9330
:101D90000D9318931A9313934B461D4613F8012B7A
:101DA0000AB1252AF9D1B5EB09060DD02C9BC4E95F
:101DB000009633442C932B9B0133072B2B9375DC1C
:101DC0000834139B334413932B78002B01F051817B
:101DD00000226B1C4FF0FF3615468DF88B201292B7
:101DE00013F8012B0A9210930A9B203B5A2B00F206
:101DF000AA85DFE813F09E00A805A805A600A8059F
:101E0000A805A8058600A805A805A900B300A8058F
:101E1000B000B500A805D000D300D300D300D30094
:101E2000D300D300D300D300D300A805A805A8058C
:101E3000A805A805A805A8054301A80503011501E3
:101E4000430143014301A805A805A805A805E6002C
:101E5000A805A805A004A805A805A805EA04A805E2
:101E60000905A805A8052C05A805A805A805A80525
:101E7000A805A805A805A8054301A80503011701A1
:101E8000430143014301E9001701FD00A805F600E5
:101E9000A8058404A204D804FD00A805EA049C0057
:101EA0000B05A805A8056500A8059C0051460798E4
:101EB0002AAA01F063F9002840F054812DAC80E794
:101EC000934B1E9315F0200300F0C484073727F0CE
:101ED00007031A4652F8087BD3F804800B92EB07ED
:101EE0000AD557EA080307D030238DF88C300A9BB7
:101EF00045F002058DF88D30022325F4806500F051
:101F00002BBC079801F018FB436818461A93FEF79C
:101F10002FF91890079801F00FFB83680D93189B19
:101F20002BB10D9B1BB11B780BB145F48065109B49
:101F300056E79DF88B30002BF9D120238DF88B309C
:101F4000F5E745F00105F2E757F8043B002B129343
:101F5000EDDA5B42129345F00405E8E72B23EDE749
:101F6000109B13F8012B2A2A0A9211D157F8046BFF
:101F7000109346EAE676DAE701FB062613F8012B12
:101F80000A920A9A303A092AF6D946EAE6762AE708
:101F900000260A21F5E745F08005C8E700230A225C
:101FA00012930A9B1299303B02FB01331293109B50
:101FB00013F8011B1093A1F13003092B0A91F0D9FA
:101FC00012E745F00805B2E7109B1B78682B01BFAC
:101FD000109B45F400750133109318BF45F0400580
:101FE000A5E7109B1B786C2B05D1109B0133109338
:101FF00045F020059BE745F0100598E73A4652F872
:10200000043B8DF8F43000230B928DF88B309B4607
:10201000012698461F4614930C930DF1F409C0E174
:1020200045F01005A90613D5073727F007031A4610
:1020300052F8087BD3F804800B92B8F1000F05DA50
:102040002D237F4268EB48088DF88B30012386E30F
:102050003A4652F8043B0B92EA0603D51F464FEA74
:10206000E378EAE76F0603D51FB243F3C038E4E72D
:10207000A805F3D55FB243F3C018DEE7073727F0B2
:1020800007031946F1E80223CDE90E230E9B0B91BD
:102090001C930F9B4FF0FF3223F000431D93DDE9AB
:1020A0001C011C4BFEF7C2FC08BBDDE91C014FF014
:1020B000FF32184BFEF79CFCC8B9DDE90E01002287
:1020C0000023FEF78BFC10B12D238DF88B30124AC4
:1020D000124B0A994FF0000B4729CCBF9146994605
:1020E000032625F08005CDF850B000F0FDBFDDE9F6
:1020F0000E2310461946FEF799FC8346A0B10F9BAC
:10210000074A002BBCBF2D238DF88B30054BE0E731
:1021100093580008FFFFEF7F875800088358000896
:102120008F5800088B5800080A9B612B2CD0412B3C
:102130002CD158233022632E8DF88C208DF88D30D1
:1021400045F0020540F389800798711CFFF7E8F815
:102150008146002840F08680BAF80C3043F04003F6
:10216000AAF80C30DAF86430D90707D4BAF80C3082
:102170009A0503D4DAF85800FEF7ABFFBAF80C3032
:102180005B067FF5BFADBAE57823D3E7711C6BD052
:102190000A9B23F02003472B01D1002E66D045F483
:1021A000807314930F9B002B63DA0E9B16930F9B87
:1021B00003F1004317932D2315930A9B23F0200866
:1021C000B8F1410F40F0D181DDE9160124AA01F0F8
:1021D000D3F900224FF07F53FEF78EF902460B46EB
:1021E000CDE9082300220023FEF7EEFB08B101230E
:1021F0002493244A244B0A994F46612914BF9046E0
:102200009846013EDDE908010022204BFEF774F9F3
:1022100002460B46CDE90823FEF71EFC0C90FEF7A4
:1022200001F902460B46DDE90801FDF7ADFF024664
:102230000B46CDE908230C9B721C18F8033007F8F5
:10224000013B25D0731E0C9300220023FEF7BCFB3C
:10225000A8B13B463020B9197EE14FF0000B0DF1DB
:10226000F4099CE783469AE7062698E7B3460126D9
:1022700095E7DDE90E23CDE9162300239CE70C9EAC
:10228000C0E700BFA4580008935800080000304081
:102290000022AD4BFEF7C0FB50B9DDE9080100227A
:1022A000A94BFEF791FB0028D3D00C9BDB07D0D5C0
:1022B000302098F80F102897289A531E289312F868
:1022C000013C8B4200F03D81392B16BF013398F859
:1022D0000A30DBB202F8013CA7EB090308930A9924
:1022E0009DF82820249821F02001412908BF0F32B1
:1022F00000F1FF3306BFD2B201210021002B8DF87F
:102300009820B4BF2D222B222493B8BFC0F1010323
:10231000092B8DF8992040F39B810A270DF1A70026
:10232000B3FBF7F6024607FB1631303102F8011C09
:1023300019466329334600F1FF30F1DC3033911E3A
:1023400000F8013C0B460DF199060DF1A700834200
:10235000C0F079810DF1A9039B1A814288BF002347
:102360000DF19A021A4426ABD31A1B93089B1B9AB1
:10237000012B03EB020601DCEA0701D5119B1E4489
:102380004FF00008474625F4806545F480731493A8
:10239000CDF83080159B002B40F0AD810023149DBB
:1023A0001493149BB342B8BF334615939DF88B30FA
:1023B00013B1159B0133159315F002031F931EBF34
:1023C000159B0233159315F08403209321D1129BA2
:1023D000159A9B1A002B1CDDDDE92B21DFF86CC15F
:1023E000102B02F1010204F10800C4F800C000F350
:1023F000B6821944072ACDE92B21636040F3C682D7
:10240000514607982AAA00F0B9FE002840F00F862E
:102410002DAC9DF88B202C9B6AB10DF18B022260B4
:10242000012213442C932B9B62601344072B2B93A4
:1024300000F3AE8208341F9A2C9B62B123AA22605B
:10244000022213442C932B9B62600133072B2B93A6
:1024500000F3A8820834209B802B21D1129B159A6F
:102460009B1A002B1CDDDDE92B21DFF8E4C0102BCB
:1024700002F1010204F10800C4F800C000F39C82DC
:102480001944072ACDE92B21636040F3AC82514601
:1024900007982AAA00F072FE002840F0C8852DACEB
:1024A000149B9B1B002B14931BDDDDE92B2314983D
:1024B00001321028264804F10801206000F39582BB
:1024C0001498072A0344CDE92B23606040F3A282CD
:1024D000514607982AAA00F051FE002840F0A7852F
:1024E0002DAC2C9BE805149300F19A82C4E9009668
:1024F0001E442B9B2C960133072B2B9300F3D68283
:102500000834680700F17585DDE9122315998A42C0
:10251000ACBF9B185B1813932C9B3BB1514607989B
:102520002AAA00F02BFE002840F0818500232B937F
:10253000BBF1000F40F097850B9F2DACDDF840906C
:102540002AE402F8010CB7E60000E03FDC5900087D
:10255000CC59000803F8010BCA1A002AFADA731CD6
:102560000136B8BF00231F44B6E6B8F1460F05D0C8
:10257000B8F1450F31D1771C022301E03746032320
:1025800028AA049225AA039224AACDE901720093F5
:102590000798DDE9162301F0ABF8B8F1470F814643
:1025A00032D1E8071BD4289BB8F1470FA3EB0903EE
:1025B000249F08933FD0B8F1460F7FF490AE05F00A
:1025C0000103002F43EA06035CDD002B64D0119B5E
:1025D000FB181E4466230A9363E03746CCE709EBF9
:1025E000070308930022DDE916010023FEF7ECF94A
:1025F00008B1089B28933022289B08999942D2D988
:10260000591C28911A70F7E7C319B8F1460F0893BF
:10261000E8D10378302B09D1DDE91601002200232F
:10262000FEF7D2F910B9C7F101072497089A249B45
:102630001A440892D6E7F91C01DBBE4215DA0A9B60
:10264000023B0A934BE613F8017B06F8017F7EE616
:1026500041B930228DF89A200DF19B02303302F8F7
:10266000013B80E60DF19A02F8E7089BBB420DDDC5
:10267000089B119A002F03EB02060BDCC7F1010344
:102680001E4407E053B1119B0133A2E7EB071DD5B0
:10269000119BFE1867239EE73E469BE766230126B3
:1026A0000A9315F480630C9322D04FF00008002F9A
:1026B000CDF830807FF76EAE0D9B1B78FF2B07D1D6
:1026C0000C9B189A434402FB036663E63E46E1E72F
:1026D000BB42F5DAFF1A0D9B5B7833B10C9B0133DB
:1026E0000C930D9B01330D93E6E708F10108E3E736
:1026F000DDF830804EE62D238DF88B304EE6AE06A9
:1027000007D5139A3B681399D217C3E9001204370F
:1027100014E7E80603D53B68139A1A60F7E76906E1
:1027200003D53B68139A1A80F1E7AA05F3D53B68F5
:10273000139A1A70EBE745F0100515F020031FD02F
:10274000073727F007031A4652F8087BD3F80480AE
:102750000B92002325F4806500228DF88B20002E3B
:10276000C0F2968425F080020C9257EA080240F0ED
:102770009484002E00F0DF80012B40F0918483E0F0
:102780003A4652F8047B15F010080B9201D0984697
:10279000DFE715F0400301D0BFB2DAE715F40078A7
:1027A000D7D0FFB2F3E73B4653F8047B78220B9374
:1027B00047F63003ADF88C30974B4FF000081E936E
:1027C00045F0020502230A92C6E73B46002753F86C
:1027D000049BBE420B938DF88B700FDB324639465B
:1027E000484600F0ADFE834600283FF47CACBB4673
:1027F000B846A0EB090614970C97D2E54846FDF7BA
:10280000B7FCBB4606466EE445F0100515F0200304
:102810000AD0073727F007031A4652F8087BD3F887
:1028200004800B92012397E73A4652F8047B15F097
:1028300010080B9201D09846F4E715F0400301D040
:10284000BFB2EFE715F40078ECD0FFB2F3E7734BBB
:10285000FFF737BB3A4652F8047B15F010080B928D
:1028600002D09846FFF73BBB15F0400302D0BFB241
:10287000FFF735BB15F400783FF431ABFFB2F0E75A
:102880000A2F78F1000307D23037FFB28DF8577165
:102890000DF2571900F021BC002308930C9B56AD94
:1028A00003F4806314930A22002338464146FEF75E
:1028B000FBF8303205F8012C089A034601320892E1
:1028C000149A8B4605F1FF390AB30D9A08991278CC
:1028D00091421CD1FF291AD00A2F78F10008C0F0CC
:1028E000FC83189B0890A9EB03091A4648461A99DD
:1028F00000F00EFE0D9B5A78089B1AB10D9A01321A
:102900000D92002208921F46D8464D46CBE70A2F6B
:1029100078F10008F7D2E0E31E9A07F00F03D35CCA
:102920003F0947EA08774FEA181809F8013D57EAC6
:102930000803F1D1D1E31BB9ED0701D53027A5E795
:102940000DF5AC79C9E30A9B002B00F092838DF85A
:10295000F43000230B978DF88B30FFF758BB4FF006
:10296000100C072A6144CDE92B21C4F804C00ADD0C
:10297000514607982AAA219300F000FC002840F055
:102980005683219B2DA80446103B25E5044640E5CF
:10299000514607982AAA00F0F1FB002840F047832F
:1029A0002DAC48E5514607982AAA00F0E7FB00281D
:1029B00040F03D832DAC4EE54FF0100C072A6144EA
:1029C000CDE92B21C4F804C00ADD514607982AAA94
:1029D0001F9300F0D3FB002840F029831F9B2DA8F4
:1029E0000446103B3FE504465AE51020072A0344FD
:1029F000CDE92B23606008DD514607982AAA00F034
:102A0000BDFB002840F013832DA9149B0C46103BFE
:102A100014934AE50C4664E593580008A45800084E
:102A20000A9B652B40F34682DDE90E01002200235C
:102A3000FDF7CAFF00286AD0734B2360012363604F
:102A4000149B01332C932B9B0133072B2B9337DCE7
:102A50000834249B089A934202DBE9077FF551ADC5
:102A6000199B119A2360119B63602C9B13442C9338
:102A70002B9B0133072B2B932CDC0834089B5E1E09
:102A8000002E7FF73EAD4FF01008604F102EDDE9AD
:102A90002B3204F1080103F10103276024DC666096
:102AA000072B1644CDE92B3640F3A08251460798F8
:102AB0002AAA00F063FB002840F0B9822DAC20E583
:102AC000514607982AAA00F059FB002840F0AF822F
:102AD0002DACBEE7514607982AAA00F04FFB00280C
:102AE00040F0A5822DACC9E71032072BCDE92B327F
:102AF000C4F8048008DD514607982AAA00F03EFB7E
:102B0000002840F094822DA90C46103EBEE7249B7D
:102B1000002B7DDC3C4B236001236360149B01335D
:102B20002C932B9B0133072B2B9346DC08340899FD
:102B3000249B2C9A0B4305F001010B433FF4E1ACBD
:102B4000199B2360119B1A4463602B9B2C920133C9
:102B5000072B2B933BDC04F10803249E002E1BDA89
:102B60001A461024294F7642102EDDE92B1003F16E
:102B7000080301F10101176033DC566007290644A0
:102B8000CDE92B1608DD514607982AAA00F0F6FA7F
:102B9000002840F04C822DAB089A08995A602C9A74
:102BA000C3F800900A442C922B9A0132072A2B92E8
:102BB0003FF77CAF03F10804A3E4514607982AAA23
:102BC00000F0DCFA002840F032822DACAFE751462D
:102BD00007982AAA00F0D2FA002840F028822DABEC
:102BE000BBE710300729CDE92B10546008DD5146B2
:102BF00007982AAA00F0C2FA002840F018822DABEC
:102C00001A46103EB0E700BFB5580008CC5900087E
:102C1000089BBB42A8BF3B46002B1E460BDDC4E908
:102C20000093149B33442C932B9B0133072B2B9342
:102C300000F38C800834002EB4BF3E46BE1B002E2D
:102C40001ADDDDE92B329A48102E03F1010304F15D
:102C50000801206000F384806660072B1644CDE9EC
:102C60002B3640F39080514607982AAA00F086FA46
:102C7000002840F0DC812DAC6A054F440CD50C9B3C
:102C8000002B00F38280B8F1000F00F38180089BD5
:102C90004B449F4228BF1F46249B089A934201DB66
:102CA000EB070ED5199B119A2360119B63602C9B37
:102CB00013442C932B9B0133072B2B9300F3E380BE
:102CC0000834249B089AA2EB030809EB0203DB1BE0
:102CD0009845A8BF9846B8F1000F2C9B0ADD4344E5
:102CE0002C932B9BC4E900780133072B2B9300F323
:102CF000D4800834249E089BB8F1000FA3EB06068D
:102D0000A8BFA6EB0806002E7FF7FBAB4FF010081C
:102D1000674F102EDDE92B3204F1080103F10103A6
:102D200027607FF7BCAE1032072BCDE92B32C4F8F9
:102D3000048008DD514607982AAA00F01FFA0028EF
:102D400040F075812DA90C46103EE2E751460798E8
:102D50002AAA00F013FA002840F069812DAC6AE736
:102D60001020072B0244CDE92B32606008DD51466C
:102D700007982AAA00F002FA002840F058812DA9ED
:102D80000C46103E5DE70C4676E7B8F1000F4ADDD1
:102D900008F1FF381A9B189A2360189B63602C9BDC
:102DA00013442C932B9B0133072B2B9342DC0834C9
:102DB000089B4B44DA1B0D9B1B789A42A8BF1A460E
:102DC000002A2C9B0A9209DD13442C932B9BC4E907
:102DD00000720133072B2B9336DC08340D9B1E78D1
:102DE0000A9B002BA8BFF61A002E18DDDDE92B3256
:102DF0002F48102E03F1010304F1080120602DDC9F
:102E00006660072B1644CDE92B363ADD514607980C
:102E10002AAA00F0B3F9002840F009812DAC0D9BDF
:102E20001B781F442BE70D9B013B0D930C9B013B33
:102E30000C93AFE7514607982AAA00F09FF90028A3
:102E400040F0F5802DACB3E7514607982AAA00F070
:102E500095F9002840F0EB802DACBFE71020072B40
:102E60000244CDE92B32606008DD514607982AAA5A
:102E700000F084F9002840F0DA802DA90C46103EBD
:102E8000B4E70C46CBE7514607982AAA00F076F93A
:102E9000002840F0CC802DAC13E7514607982AAAB1
:102EA00000F06CF9002840F0C2802DAC22E700BF92
:102EB000CC5900080899149B2B9A012903F10103AE
:102EC00002F1010204F1080602DCEF0740F1838001
:102ED0000121072ACDE92B23C4F80090616008DDA9
:102EE000514607982AAA00F049F9002840F09F802F
:102EF0002DAE199B119A3360119B73602C9B134468
:102F00002C932B9B0133072B2B9333DC0836089B28
:102F10000022DDE90E01DDE92B875C1E0023FDF7B1
:102F200053FD00282FD109F10102C6E90024089AB7
:102F300008F10103013F1744072BCDE92B3753DD7F
:102F4000514607982AAA00F019F900286FD12DAE32
:102F500026AB33601B9B1B9A73602C9B13442C93F2
:102F60002B9B0133072B2B933FF7A0AD06F10804F1
:102F7000FFF7C7BA514607982AAA00F0FFF80028C1
:102F800055D12DAEC3E7089B012BE1DD4FF01008B2
:102F9000584F102CDDE92B3206F1080103F1010333
:102FA000376007DC2244072BCDE92B327460C7DC85
:102FB0000E46CDE71032072BCDE92B32C6F8048040
:102FC00006DD514607982AAA00F0D8F878BB2DA94B
:102FD0000E46103CDDE70121072ACDE92B23C4F87A
:102FE00000906160B4DDABE70836B1E70C46FFF74F
:102FF00088BA129B159A9D1A002D7FF785AA102773
:103000003D4E102DDDE92B32266003F1010318DC63
:103010006560072B1544CDE92B357FF775AA51461E
:1030200007982AAA00F0AAF800283FF46DAABBF17D
:10303000000F3FF497A859460798FEF7B1F8FFF73D
:1030400091B81032072BCDE92B32676002DC0834CF
:10305000103DD6E7514607982AAA00F08FF80028BD
:10306000E5D12DACF4E759460798FEF799F8FFF73C
:1030700063BA2C9B1BB900232B93FFF773B85146FF
:1030800007982AAA00F07AF80028F4D0FFF76AB867
:1030900057EA08020C953FF46FAB012B3FF4F0ABFD
:1030A000022B0DF5AC793FF437AC07F00703FF08AE
:1030B00047EA48774FEAD808303357EA08014A46CA
:1030C00009F8013DF1D10C99CF0706D5302B04D07A
:1030D000302309F8013CA2F102094FF0000B56AB76
:1030E0000C9D1496A3EB0906D8465F46CDF830B088
:1030F000FFF757B9CC590008DC590008F0B51F4656
:103100008B89ADF26C4D23F00203ADF80C304B6EA1
:1031100015461993CB890646ADF80E30CB6916A833
:1031200007934B6A0C4609931AAB009304934FF430
:1031300080630293059300230693FDF7C7FF2A4699
:103140003B4669463046FEF7A3FD051E07DB694690
:103150003046FEF705FC002818BF4FF0FF35BDF8DC
:103160000C3016985B0642BFA38943F04003A3814D
:10317000FDF7ADFF28460DF26C4DF0BD936810B51C
:10318000144633B100F008F80023A3600023636005
:1031900010BD1846FAE7000093682DE9F74F064680
:1031A0000C4691461BB9002003B0BDE8F08F8B8917
:1031B000180750D50B69002B4DD0B4F90C30D9F855
:1031C000008013F002076BD113F0010300F09C8024
:1031D0003846BA46BB46BBF1000F00F0038150B938
:1031E0005A460A21504600F0ABF9002800F0008151
:1031F0000130A0EB0A07206821695F453A4628BFE5
:103200005A468842A568636940F2F5801D44AA4287
:1032100040F3F18051462A4600F060F923682146C8
:103220002B4430462360FEF79BFB002867D17F1BB1
:1032300040F0F98021463046FEF792FB00285ED12F
:10324000D9F80830AA445B1BABEB050BC9F8083072
:10325000002BC0D1A7E72146304600F0E9F800284E
:10326000ABD04FF0FF309FE7D8E900A508F1080880
:10327000D4F824B0E169002DF6D0BD422B46524669
:1032800028BF3B463046D847002838DDD9F80830FB
:1032900082441B1A2D1AC9F80830002BE8D182E7A6
:1032A0004FF0000A614F5546E2E7D8E9007A08F18D
:1032B0000808B4F90C302068A268BAF1000FF4D005
:1032C000990563D5524536D813F4906F33D02169F0
:1032D0006569A0EB010B05EB450505EBD5750BF119
:1032E00001026D105244954238BF15465B053DD52D
:1032F00029463046FEF714F848B90C233360A389F9
:1033000043F04003A381ACE71F469A46D1E75A46F3
:103310002169019000F022F9A289019B22F49062B8
:1033200042F08002A2815246236165615B44A5EBB5
:103330000B052360A560524528BF524655463946C5
:103340002068019200F0CAF8A368019A9B1AA36052
:10335000236813442360D9F808302F445B1BAAEB81
:10336000050AC9F80830002BA3D11CE72A463046CD
:1033700001F0A4FA03460028D5D130462169FDF7B3
:103380000FFFA38923F08003A381B6E7236983425B
:1033900002D36169514515D9524528BF5246154699
:1033A000394600F09BF8A36822685B1B2A44A3609F
:1033B0002260002BCFD121463046FEF7D1FA0028FB
:1033C000C9D09CE76FF00043534528BF534693FB99
:1033D000F1F3656A4B433A463046E169A847051E5A
:1033E000B9DC8CE7D8E900AB002008F10808F2E668
:1033F0000BF10107FFE6934208DC656A524630464E
:10340000E169A847051E3FF712AF78E751460192E0
:1034100000F064F8019AA36815469B1AA36023681C
:103420001344236003E701200AE700BF00FCFF7F8D
:1034300038B5294B054618680C4618B1436B0BB9D3
:10344000FDF758FDB4F90C30190722D4DA0607D479
:1034500009222A6043F040034FF0FF30A38133E09C
:10346000580712D5216B41B104F14003994202D0B3
:103470002846FDF795FE00232363A38923F0240348
:10348000A3810023636023692360A38943F00803B9
:10349000A38123694BB9A38903F42073B3F5007F9B
:1034A00003D02146284601F0DDFBB4F90C3013F0BF
:1034B00001020AD00022A26062695242A26122691E
:1034C00042B913F08000C5D138BD990758BF626971
:1034D000A260F4E70020F7E70C000020884210B556
:1034E00001EB020402D98442234607D8431EA142BD
:1034F00008D011F8012B03F8012FF8E70146024428
:103500008A4200D110BD13F8014D02F8014DF7E7D2
:10351000034610B5013932B111F8014F013A03F8F1
:10352000014B002CF7D100211A44934200D110BD69
:1035300003F8011BF9E7000000487047540600201B
:10354000034610B5C9B202449342184601D1002087
:1035500003E0047801338C42F6D110BD0A44914255
:1035600000F1FF3300D1704710B511F8014B9142C3
:1035700003F8014FF9D110BDF8B5174600223A60A3
:10358000134A21F00043934204460D460E461CD8D0
:1035900002461A4319D00F4A0A4052B900220E4B74
:1035A000FCF7AAFF6FF0350204460E4621F00043F7
:1035B0003A603A681B15A3F2FE336FF31E561A44A5
:1035C00046F07F553A6045F4001520462946F8BD7F
:1035D000FFFFEF7F0000F07F000050432DE9F74F21
:1035E00003690C690746A3427EDB013CA30000F19E
:1035F000140501F11408009305EB8403019358F8B6
:10360000243055F8242001339A42B2FBF3F608EB3C
:1036100084092ED34FF0000AC446AE46D3465CF868
:10362000043B98B206FB00A01B0C020C06FB032314
:10363000DEF8002080B292B2121A5A44DEF800007E
:103640004FEA134A9BB2C3EB224303EB104392B2FF
:1036500042EA0342E1454FEA234B4EF8042BDED207
:10366000009BEB582BB9019B043B9D421A462FD37C
:103670003C61384601F01AF8002825DB2946002075
:1036800058F8042BD1F800C01FFA82FE1FFA8CF301
:10369000A3EB0E030344120CC2EB234202EB1C42C9
:1036A0009BB243EA0243C1454FEA224041F8043B42
:1036B000E6D255F8242005EB840322B9043B9D4251
:1036C0001A460BD33C610136304603B0BDE8F08F9B
:1036D0001268043B002ACBD1013CC6E71268043BC8
:1036E000002AEFD1013CEAE70020EEE700000000ED
:1036F0002DE9F04F14461D46816B97B08146CDE908
:103700000645239E49B10123C26B93408B604A60FA
:1037100000F0CDFD0023C9F838302B1EAFBF0023C9
:10372000012223F000430793A8BF3360DDF81C801B
:103730009B4BB8BF326033EA080314D142F20F73D7
:10374000229A1360C8F31303234300F05B85249B84
:10375000DFF850A21BB10AF10303249A136050460C
:1037600017B0BDE8F08FDDE90623CDE90C23DDE9D4
:103770000C0100220023FDF727F9074650B1012371
:10378000229A1360249B13B1874B249A1360DFF8AD
:103790001CA2E4E714AB019315AB00934846DDE9A6
:1037A0000C2301F033F8C8F30A560390002E78D0AA
:1037B000DDE90C010D9BA6F2FF36C3F3130343F0C2
:1037C0007F5343F44013129719460022784BFCF7BD
:1037D000DBFC6DA3D3E90023FCF78EFE6CA3D3E9D9
:1037E0000023FCF7D3FC044630460D46FCF71AFED6
:1037F00069A3D3E90023FCF77FFE02460B4620466F
:103800002946FCF7C3FC04460D46FDF725F90022C6
:103810000746002320462946FDF7E0F840B1384628
:10382000FCF700FE22462B46FDF7CEF800B9013F1B
:10383000162F54D8DDE90C015E4B03EBC703D3E927
:103840000023FDF7CBF800284BD00023013F0F9356
:10385000149B9B1B5A1E49BFC3F101030023049311
:103860000023099254BF04930993002F3BDB099B6B
:103870000E973B44099300230A93209B092B66D89B
:10388000052BC4BF043B2093209BC8BF0024A3F199
:103890000203D8BF0124032B65D8DFE803F0545698
:1038A000382CDDE914631E4406F23243202BC1BFDD
:1038B000C3F1400308FA03F806F2124324FA03F3B3
:1038C000D6BFC3F1200348EA030004FA03F0FCF773
:1038D00099FD0122A1F1F873013E129274E70123D0
:1038E000B5E70F90B4E7049BDB1B04937B420A937C
:1038F00000230E93C1E701230B93219B07EB030BDE
:103900000BF10103012B0893B8BF012306E001234B
:103910000B93219B002B29DD9B4608930021042259
:1039200002F11400984229D94846C9F83C1000F029
:1039300099FC8246002843D1024640F2AF111E4B4B
:103940001E4801F0EDF90023E2E70023D4E701244B
:1039500000230B9420934FF0FF3B00221223CDF85D
:1039600020B02192DAE701230B93F4E74FF0010B2B
:103970005B46CDF820B0CDF884B0CFE701315200DE
:10398000CEE700BFAFF3008061436F63A787D23FEC
:10399000B3C8608B288AC63FFB799F501344D33F3E
:1039A0000000F07FC0580008B6580008B55800085D
:1039B0000000F83F205A0008C4580008D5580008F5
:1039C000089BC9F838000E2B00F2A180002C00F0F3
:1039D0009E80002F33DD9C4B07F00F0203EBC203E8
:1039E000F805D3E90034CDE910344FEA271416D591
:1039F000DDE90C01954B0326D3E90823FCF7A6FE6D
:103A0000CDE9060104F00F04904D54B9DDE910230F
:103A1000DDE90601FCF79AFECDE9060128E0022661
:103A2000F2E7E10708D5DDE91001D5E90023FCF74D
:103A300063FDCDE91001013664100835E5E700F0BB
:103A4000AF80DDE90C017C427F4B04F00F0203EBF9
:103A5000C203D3E90023FCF74FFD02260023CDE982
:103A600006017A4D2411002C40F08F80002BD3D119
:103A7000DDE906450F9B002B00F0948000222046D4
:103A80002946734BFCF7AAFF002800F08B80089BA7
:103A9000002B00F08780BBF1000F34DD20460022B0
:103AA00029466C4BFCF728FD5C46CDE9060107F181
:103AB000FF3801363046FCF7B5FCDDE90623FCF79C
:103AC0001BFD0022644BFCF761FB0546A1F150761B
:103AD000002C6AD1DDE906010022604BFCF754FBA3
:103AE00002460B46CDE906232A463346FCF794FFEF
:103AF000002840F09782DDE906012A4606F10043DE
:103B0000FCF76CFF38BBDDE90C34CDE90634159BBE
:103B1000002BC0F256810E2F00F353814A4B03EB6A
:103B2000C703D3E90034CDE90434219B002B80F294
:103B3000E480089B002B00F3E0800CD1DDE9040158
:103B40000022464BFCF7D8FCDDE90623FCF75AFFC0
:103B5000002800F0658200242546219B56466FEA26
:103B6000030800272146484600F0A1FB002D00F085
:103B7000BC802FB1AF4203D03946484600F097FBD6
:103B80002946484600F093FBAFE0E20705D5D5E9AA
:103B90000023FCF7B1FC012301366410083562E70D
:103BA000022665E7B846089C84E7274B0B9903EB90
:103BB000C40353E902235444002953D00020284968
:103BC000FCF7C4FD33462A46FCF7DEFA5646CDE93B
:103BD0001001DDE90601FCF73FFF0546FCF722FC7A
:103BE00002460B46DDE90601FCF7CEFA02460B461B
:103BF0003035CDE90623DDE9102306F8015BFCF73B
:103C0000EDFE002871D1DDE9062300201049FCF704
:103C1000BBFADDE91023FCF7E1FE002840F0B38099
:103C2000A6423FF470AFDDE910010022094BFCF71A
:103C300063FC0022CDE91001DDE90601054BFCF72C
:103C40005BFCCDE90601C4E7205A0008F8590008DA
:103C50000000F03F0000244000001C400000144021
:103C60000000E03F31462846FCF746FC5646CDE9C9
:103C700010011394DDE90601FCF7EEFE0546FCF7A2
:103C8000D1FB02460B46DDE90601FCF77DFA024650
:103C90000B46303506F8015BA642CDE906234FF00E
:103CA000000224D1DDE91001AE4BFCF76FFA0246A9
:103CB0000B46DDE90601FCF7AFFE002863D1DDE924
:103CC00010230020A749FCF75FFA02460B46DDE906
:103CD0000601FCF783FE00283FF415AF139E731E08
:103CE000139316F8013C302BF8D047463BE09E4B2F
:103CF000FCF702FCCDE90601BCE75646DDE90645C6
:103D0000DDE9042320462946FCF720FDFCF7A4FE4C
:103D10008046FCF787FBDDE90423FCF7EDFB024658
:103D20000B4620462946FCF72FFA08F13004089D7F
:103D300006F8014BA6EB0A04A54202460B4633D116
:103D4000FCF724FADDE9042304460D46FCF764FE83
:103D5000C0B9DDE9042320462946FCF735FE10B141
:103D600018F0010F0ED14846039900F0A0FA002385
:103D70003370229B01371F60249B002B3FF4EFAC74
:103D80001E60ECE4B84633461E4613F8012D392A6E
:103D900006D19A45F8D1302208F101088AF80020AE
:103DA0001A7801321A70A0E700226F4BFCF7A4FBCF
:103DB0000022002304460D46FCF706FE00289FD093
:103DC000D1E70B9A002A00F0EA80209A012A00F33A
:103DD000CD80129A002A00F0C18003F233430A9C7E
:103DE000049E049A01211A440492099A48461A44EE
:103DF000099200F0F7FA054666B1099B002B09DD30
:103E0000B342A8BF3346049AF61AD21A0492099A0A
:103E1000D31A09930A9B0BB30B9B002B00F0C680AF
:103E2000002C00F0C08029462246484600F092FB54
:103E3000039A01460546484600F0EAFA039980468F
:103E4000484600F034FA0A9B1B1B0A9300F0B1802D
:103E500041460A9A484600F07DFB039001214846FE
:103E600000F0C0FA0E9B0446002B00F0D5811A46E4
:103E70000146484600F06EFB209B0446012B00F3F0
:103E80009F80069B002B40F09780079BC3F3130392
:103E9000002B40F09380079B23F000431B0D1B0574
:103EA00033B1049B01330493099B0133099301232C
:103EB0000A930E9B002B00F0B581236904EB83036A
:103EC000186900F043FAC0F12000099B184410F073
:103ED0001F0000F08280C0F12003042B73DD049BDF
:103EE000C0F11C0003440493099B06440344099356
:103EF000049B002B05DD1A464846039900F06AFB37
:103F00000390099B002B05DD21461A46484600F028
:103F100061FB04460F9B002B61D02146039800F003
:103F2000C5FB00285BDA00230A224846039900F00B
:103F3000C7F90B9B07F1FF380390002B00F0748149
:103F4000294600230A22484600F0BAF9BBF1000FC7
:103F500005466FDC209B022B49DC6BE0149BC3F110
:103F600036033CE70000E03F00002440089B5C1E55
:103F70000A9BA34209DB1C1B089B002BBFF630AF3A
:103F8000049B089A9E1A00232BE70A9B0E9AE31AB9
:103F90001A440A94049E0024089B0E9221E70A9C6E
:103FA000049E0B9D28E7DDF80C8051E70A9A0399DF
:103FB00050E7CDF80C8051E7002379E7069B77E7BF
:103FC00000230A9379E793D0049A1C331A4404928D
:103FD000099A1E441A4409928AE70346F4E7089BAB
:103FE000B846002B20DC9B46209B022B1EDDBBF13C
:103FF000000F7FF4B2AD21465B460522484600F033
:104000005FF901460446039800F050FB00287FF753
:10401000A4AD5646312308F1010806F8013BA0E59E
:10402000B846089C2546F4E7DDF820B00B9B002B32
:1040300000F0FE80002E05DD29463246484600F09D
:10404000C9FA05460A9B002B5BD04846696800F018
:1040500009F9064620B9024640F2EF217F4B6FE492
:104060002A6905F10C01023292000C30FFF776FA52
:1040700001223146484600F0ADFA2F4605460AF1C6
:10408000010304930AEB0B030A93069B03F001035D
:104090000993049B2146039803F1FF3BFFF79EFA27
:1040A000034639463033069003980B9300F0FEFA2E
:1040B0002A4608902146484600F014FBC26806468E
:1040C0000B9B02BB0146039800F0F0FA02460B9BE3
:1040D00031464846CDE90B3200F0E9F8209B0C9AB6
:1040E000049E42EA0301099B19430B9B0DD1392B16
:1040F00027D0089A002A01DD069B31338BF8003067
:1041000030E52846B9E70122E2E70899002904DBF7
:10411000209801430998014320D1002AEEDD0122B5
:1041200003994846049300F055FA2146039000F0A5
:10413000BDFA0028049B02DCE0D1DA07DED5392B7A
:10414000DAD139238BF8003033461E4616F8012C9D
:10415000013B392A4ED001321A7003E5002A03DDF3
:10416000392BEED00133C9E7049A0A9902F8013CD1
:104170008A4228D000230A220399484600F0A0F87A
:10418000AF4203904FF000034FF00A023946484611
:1041900007D100F095F807460546049B01330493C8
:1041A00077E700F08DF82946074600230A224846A3
:1041B00000F086F80546F0E7BBF1000FCCBF5E4685
:1041C000012600275644012203994846049300F033
:1041D00001FA2146039000F069FA0028B4DC02D10C
:1041E000049BDB07B0D433461E4613F8012D302A5A
:1041F000FAD0B7E49A45A8D1312308F101088AF82A
:104200000030AFE4249BDFF858A0002B3FF4A7AAAE
:104210000AF10803FFF7A1BA209B012B7FF731AE0B
:104220000E9B0A93012050E6BBF1000F7FF7DCAE36
:10423000564621460398FFF7D1F900F1300306F8FE
:10424000013BA6EB0A029345B6DD00230A2248464D
:10425000039900F035F80390EBE700BFC45800085D
:10426000B7580008436C70B505460C467BB16B6CC3
:1042700053F82400A0B9012101FA04F6721D284662
:10428000920000F06BFD48B1C0E901460BE021222D
:10429000042100F063FD68640028E8D1002070BDAF
:1042A000026843F824200023C0E90333F7E731B163
:1042B000436C4A6853F82200086043F822107047A4
:1042C0002DE9F04107460C461E4600200D6901F11C
:1042D000140CDCF80030013099B202FB01611E0CB5
:1042E0000B0C02FB063389B201EB034185424FEA16
:1042F00013464CF8041BECDC0EB3A368AB4219DC8C
:10430000616838460131FFF7ADFF804628B90246A3
:10431000BA210C4B0C4800F003FD226904F10C019A
:10432000023292000C30FFF719F921463846FFF7A8
:10433000BEFF444604EB850301355E6125612046DE
:10434000BDE8F081C45800082D5900080346B0F5B7
:10435000803F3ABF030410200020B3F1807F3CBFB0
:104360001B020830B3F1805F3CBF1B010430B3F186
:10437000804F3CBF9B000230002B05DB13F0804FC9
:1043800000F1010008BF202070470368024613F0C7
:1043900007000BD0D90721D4980749BF5B089B08B9
:1043A000012013605CBF02201360704799B209B905
:1043B00010201B0CD9B209B908301B0A190704BF19
:1043C0001B090430990704BF9B080230D90703D4A6
:1043D0005B0800F1010003D01360704700207047B4
:1043E0002020704710B50C460121FFF73BFF024625
:1043F00028B940F24511044B044800F091FC012318
:104400004461036110BD00BFC45800082D59000865
:104410002DE9F04F17460A693B6989469A42A2BFC7
:104420003B460F4699463D69D9F810A0BB687968AC
:1044300005EB0A06B34285B0B8BF0131FFF712FFA2
:1044400030B902464FF4B171404B414800F068FC6E
:1044500000F114042346002204EB860E734520D39A
:1044600007F1140809F1140108EB850501EB8A0333
:104470000293EB1B153B23F0030304331537BD42B6
:1044800038BF04230193029B03918B420CD8002E6A
:1044900003DD5EF8043D002B55D0066105B0BDE894
:1044A000F08F43F8042BD9E7B1F800A0BAF1000F60
:1044B0001FD0C446A14600275CF8042BD9F8003071
:1044C0001FFA82FB9BB20AFB0B333B44D9F8007006
:1044D000120C3F0C0AFB027202EB13429BB243EA3E
:1044E000024365454FEA124749F8043BE4D8019B73
:1044F000E750039B0431B3F80290B9F1000F20D0CC
:104500004746A4464FF0000A2368B7F800B0BCF84D
:1045100002209BB209FB0B22524443EA02434CF8AF
:10452000043B57F8043B4FEA134ABCF80030BD4245
:1045300009FB0A3303EB12434FEA134AE5D8019A09
:10454000A35004349FE7013EA1E700BFC458000810
:104550002D5900082DE9F843154612F003020746CD
:104560000E4607D01A4C013A002354F82220FFF7D8
:10457000A7FE0646AD1027D03C6C44B940F271212D
:104580003846FFF72FFF00230446386403604FF0DE
:104590000009EB070AD5314622463846FFF738FFB7
:1045A000804631463846FFF782FE46466D100BD0F6
:1045B000206838B9224621463846FFF729FF206097
:1045C000C0F800900446E4E73046BDE8F88300BF39
:1045D000EC5900082DE9F0470C460746914623693F
:1045E000496803EB6218A3684FEA621A08F10106F2
:1045F000B3420BDB3846FFF735FE054648B90246A5
:104600004FF4EF71274B284800F08AFB01315B0023
:10461000EEE7002300F1140100F1100218465345A3
:1046200033DB20692AEAEA7A04F1140319F01F093E
:1046300001EB8A0103EB800C2BD08A460022C9F1E2
:10464000200E186800FA09F010434AF8040B53F8DA
:10465000042B9C4522FA0EF2F3D8ACEB0403153B75
:1046600023F00303043304F11500604588BF0423DD
:10467000CA500AB108F10206013E384621462E61B1
:10468000FFF715FE2846BDE8F08742F8040F013316
:10469000C5E7043953F8042B9C4541F8042FF9D899
:1046A000EAE700BFC45800082D59000803460A690C
:1046B000006930B5801A0ED11433143103EB820433
:1046C00001EB820154F8045D51F8042D954203D0AA
:1046D00005D24FF0FF3030BDA342F3D3FBE70120FA
:1046E000F9E700002DE9F74F89460646114648468E
:1046F0001446FFF7DBFF051E12D129463046FFF7AF
:10470000B1FD024628B940F237213E4B3E4800F049
:1047100007FB0123C0E90435104603B0BDE8F08F64
:10472000BCBF4B46A1463046D9F80410BABF1C4660
:1047300001250025FFF796FD024618B940F24521F4
:10474000304BE3E700F1140BD9F8107009F11003B6
:10475000C5604FF0000C09F11405D946266904F133
:10476000140E05EB87080EEB86060193019B5EF89D
:10477000040B53F804AF81B201931FFA8AF35B1A5A
:10478000000C6344C0EB1A4000EB23409BB243EAA9
:10479000004376454FEA204C49F8043BE6D8331BEA
:1047A000153B23F0030315340433A64238BF04231A
:1047B0001D445B441E462C4644450ED308F10301BC
:1047C000491B21F00301033DA84538BF00210B44DC
:1047D00053F8041D99B117619EE7E64654F8041B8F
:1047E0001FFA81FCF444080C714400EB2C4089B2A0
:1047F00041EA00414FEA204C46F8041BDCE7013F48
:10480000E6E700BFC45800082D5900082DE973439E
:10481000012190469946089EFFF724FD044630B9D1
:10482000024640F20F31234B234800F079FAC9F3D6
:104830000A55C9F313030DB143F480130193B8F182
:10484000000324D068460093FFF79FFDDDE90012C6
:10485000D8B1C0F1200302FA03F30B43C2406361F5
:104860000192019B002B0CBF01220222A361226155
:10487000ADB1A5F2334505443560C0F13500099B63
:104880001860204602B0BDE870836161E9E701A8C5
:10489000FFF77BFD019B012263612030E7E7A0F277
:1048A000324004EB820330601869FFF74FFDC0EB24
:1048B0004210E4E7C45800082D5900082DE9F74FCD
:1048C000824693460C4629B9114603B0BDE8F04F25
:1048D000FCF726BDFCF75EFF0BF10B0854F8045CF7
:1048E000B8F1160FA4F1080925F0030608D938F02D
:1048F000070807D50C23CAF800304FF0000B32E050
:104900004FF01008C345F5D8464580F27981A04B99
:1049100009EB0601D3F808C048688C4505D020F0A3
:1049200001020A445268D70749D420F003008C459D
:1049300006EB00071BD108F11002BA4241DCA7EBDD
:10494000080709EB080247F001079A60576054F81E
:10495000043C504603F0010343EA080344F8043CD6
:10496000FCF71EFFA346584603B0BDE8F08FB845DC
:1049700027DCD1E90223D3609A60D9F80430A7EB91
:1049800008000F2803F0010309EB070240F23A8107
:1049900009EB080148EA030340F00100C9F80430BC
:1049A00048605368504643F0010353600831FCF7F8
:1049B000F7FB5046FCF7F4FE09F1080BD3E70020A3
:1049C0000146EA0700F1CA8054F8085CA9EB050526
:1049D0006A6822F0030232440192002900F08880C4
:1049E0008C4500EB02074AD108F11002BA427FDC85
:1049F000AB46EA685BF8081FCA609160321F242A40
:104A000037D8132A33D921681B2AA9606168E96065
:104A10001AD8083405F110022168116061685160EC
:104A2000A1689160A7EB080705EB080247F00107B2
:104A30009A6057606B6803F0010343EA08036B60F8
:104A40005046FCF7ADFE8EE7A168242A2961E16893
:104A500018BF05F11802696109BF22691034AA6103
:104A6000616902BF05F12002E9611834D4E75A46B2
:104A7000D2E721465846FEF731FD454BD2E7B8450F
:104A800036DCD1E902232846D3609A6050F8082F1B
:104A9000EB68D3609A60321F242A25D8132A08D9DC
:104AA00023681B2AAB606368EB600AD8083405F101
:104AB00010002368036063684360A3688360A946AD
:104AC0005BE7A368242A2B61E36818BF05F118008F
:104AD0006B6109BF23691034AB61636902BF05F1E3
:104AE0002000EB611834E4E72146FEF7F7FCE6E727
:104AF000019B984532DC2846EB6850F8082FD360BC
:104B00009A60321F242A25D8132A08D923681B2A21
:104B1000AB606368EB600AD8083405F110002368C5
:104B2000036063684360A3688360019FC7E7A3686D
:104B3000242A2B61E36818BF05F118006B6109BFD7
:104B400023691034AB61636902BF05F12000EB619A
:104B50001834E4E72146FEF7C1FCE6E75946504623
:104B6000FCF7DEFB834618B95046FCF719FEC4E695
:104B700054F8043CA0F1080223F001034B44934293
:104B800008D150F8047C27F003073744F5E600BF4E
:104B90005C010020321F242A2ED8132A29D9236829
:104BA0001B2A0360636843600ED804F1080200F119
:104BB0000803116819605168596092689A6021462B
:104BC0005046FCF7EDFA3BE7A368242A8360E368CC
:104BD00018BF04F11002C36009BF236900F110037C
:104BE0000361616902BF04F1180200F11803416119
:104BF000DFE703462246DCE72146FEF76FFCDEE7EF
:104C00003746BAE61F43C9F80470536843F00103FE
:104C10005360CEE670B50C46B1F90E10154600296A
:104C20001E4696B007DAA18911F0800117D14FF422
:104C3000806308460FE06A4600F050F80028F2DB77
:104C400001994FF4006001F47041A1F500535942FD
:104C500059414FF4806331602B6016B070BD002164
:104C60004023E6E78B89F7B59D0706460C4607D536
:104C700004F14303236023610123636103B0F0BDAA
:104C80006A4601ABFFF7C6FF009F0546394630462E
:104C9000FCF746FB48B9B4F90C309A05EED423F082
:104CA000030343F00203A381E2E7A389C4E90407F5
:104CB00043F08003A381019B20605BB13046B4F9CF
:104CC0000E1000F01DF828B1A38923F0030343F070
:104CD0000103A381A3891D43A581CFE738B5002334
:104CE000064D0446084611462B60FCF768FF431C3E
:104CF00002D12B6803B1236038BD00BF2808002013
:104D000038B50023054D044608462B60FCF75CFFD0
:104D1000431C02D12B6803B1236038BD2808002052
:104D20001FB514461A46094B05461B68D8684CB196
:104D3000074BCDE9013400912B46064900F062F89B
:104D400000F03EFD044B1C46F3E700BF0C000020C2
:104D5000905900089D590008CB59000838B5A1FBAF
:104D6000021535B9FCF7DCFA044638B900242046B0
:104D700038BDFCF78BFE0C230360F7E750F8042CDA
:104D800022F00302043A242A19D8132A15D91B2A1F
:104D9000C0E9005506D800F108030022C3E900224B
:104DA0009A60E4E7242AC0E9025511BF00F110031C
:104DB000056100F118034561EFE70346EDE7294679
:104DC000FCF711F9D3E782B001B901A942B14BB1A7
:104DD00013780B601278101E18BF012002B07047C4
:104DE0001046FBE76FF00100F8E70346084641B1C3
:104DF000FF2A04D98A224FF0FF301A607047012041
:104E00000A7070470EB403B5014603AB054853F86A
:104E1000042B0068019300F007F802B05DF804EB82
:104E200003B070470C0000202DE9F04FBBB00F46D7
:104E300093461C461D46009018B1436B0BB9FCF716
:104E400059F87B6EDA0705D4BB899B0502D4B86D8F
:104E5000FCF73EF9B7F90C309E0406D47A6E43F4A1
:104E6000005322F40052BB817A667B6E980408D509
:104E7000D90712D54FF0FF33039303983BB0BDE839
:104E8000F08FBB891A0701D53B696BB93946009889
:104E9000FEF7CEFA40B17B6EEAE7BB899B05E9D409
:104EA000B86DFCF716F9E5E7B7F90C3003F01A0214
:104EB0000A2A14D1B7F90E20002A10DB7A6ED60721
:104EC00004D49D0502D4B86DFCF703F923465A4675
:104ED000394600983BB0BDE8F04F00F031BC0023EC
:104EE000CDE90F33CDE90533CDE9073311AE0E9689
:104EF00003935B461C4613F8012B0AB1252AF9D10E
:104F0000B4EB0B080DD0109BC6E900B843441093D6
:104F10000F9B0133072B0F9375DC0836039B43442B
:104F200003932378002B00F0CD8300234FF0FF3252
:104F30009A46CDE9012301348DF83330A3461BF89E
:104F4000013BA3F120025A2A00F21283DFE812F09B
:104F50009A0010031003A200100310031003820034
:104F600010031003A500AF001003AC00B100100344
:104F7000CD00D000D000D000D000D000D000D000B4
:104F8000D000D0001003100310031003100310030F
:104F9000100310031003F6000301100310031003A5
:104FA000100310031003100310031003100350012B
:104FB000100310031003980110037702100310036D
:104FC00097021003100310031003100310031003C3
:104FD000100310031003F600050110031003100363
:104FE000DF000501F0001003EA0010033001520158
:104FF0008701F00010039801980079021003100354
:10500000650010039800394600980EAAFEF7B6F81E
:10501000002840F0368311AE80E7984A05921AF0D6
:10502000200200F02E82073525F00705A8466D689E
:1050300058F8084B1AF0010F09D054EA05021FBFB7
:1050400030228DF835308DF834204AF0020A2AF4E7
:10505000806A10E10098FEF76FFA436818460893DB
:10506000FBF786F807900098FEF766FA83680693C8
:10507000079B2BB1069B1BB11B780BB14AF4806ACE
:105080005C465BE79DF83330002BF9D120238DF887
:105090003330F5E74AF0010AF2E755F8043B002BFC
:1050A0000293EDDA5B4202934AF0040AE8E72B230D
:1050B000EDE75A4612F8013B2A2B13D155F8043B71
:1050C000934643EAE3730193DAE704FB010112F824
:1050D000013BA3F130000928F7D941EAE171934679
:1050E00001912EE700210A24F3E74AF0800AC7E77E
:1050F00000220A210292029A303B01FB0233029302
:105100001BF8013BA3F13002092AF4D919E79BF8F7
:105110000030682B06BF0BF1010B4AF4007A4AF00D
:10512000400AADE79BF800306C2B04D10BF1010B6A
:105130004AF0200AA4E74AF0100AA1E7A846002492
:1051400058F8043B8DF833408DF8843001230DF17D
:1051500084090193A9E04AF0100A1AF0200F10D038
:10516000073525F00705A8466D6858F8084B002D4F
:1051700005DA2D23644265EB45058DF833300123B4
:1051800048E0A8461AF0100F58F8045B02D02C46ED
:10519000ED17ECE71AF0400F03D02CB245F3C03501
:1051A000E5E71AF4007FF2D06CB245F3C015DEE7F4
:1051B0001AF0200F07D0039A2B680399D217C3E97E
:1051C0000012043595E61AF0100F03D02B68039AED
:1051D0001A60F6E71AF0400F03D02B68039A1A8082
:1051E000EFE71AF4007FF1D02B68039A1A70E8E712
:1051F0004AF0100A1AF020031FD0073525F00705E2
:10520000A8466D6858F8084B00232AF4806A0022EB
:105210008DF83320019A002AC0F261822AF08002C0
:10522000049254EA050240F06082019A002A00F0DC
:105230009681012B40F05C823AE1A8461AF01005F5
:1052400058F8044B01D01D46DEE71AF0400301D0A8
:10525000A4B2D9E71AF40075D6D0E4B2F3E747F662
:105260003003A8460025ADF83430044B58F8044B01
:105270004AF0020A05930223C9E700BF93580008C9
:10528000A8460025019B58F8049BAB428DF833508B
:10529000C0F2D0801A4629464846FEF751F9044626
:1052A00018B1A0EB090301932C46019BA342B8BFA0
:1052B000234604939DF8333013B1049B01330493C8
:1052C0001AF0020309931EBF049B023304931AF0E1
:1052D00084030A931FD1029B049A9D1A002D1ADDA4
:1052E000A84B102DDDE90F2106F1080002F10102A3
:1052F000336000F34D817560072A0D44CDE90F2519
:1053000040F35B81394600980EAAFDF737FF00286D
:1053100040F0B78111AE9DF83310DDE90F3261B175
:105320000DF133013160012101330A44072BCDE92E
:105330000F32716000F3438108360999DDE90F32BD
:1053400059B10DA93160022101330A44072BCDE97F
:105350000F32716000F33C8108360A9B802B1FD10D
:10536000029B049A9D1A002D1ADD874B102DDDE952
:105370000F2106F1080002F10102336000F33181D0
:105380007560072A0D44CDE90F2540F33F8139466A
:1053900000980EAAFDF7F2FE002840F0728111AECF
:1053A000019BE41A002C1ADDDDE90F327648102C3F
:1053B00003F1010306F10801306000F329817460F4
:1053C000072B1444CDE90F3440F33381394600985C
:1053D0000EAAFDF7D3FE002840F0538111AE019BC9
:1053E000019A7360109BC6F80090134410930F9BB2
:1053F0000133072B0F9300F31E8106F108031AF007
:10540000040F40F02081DDE9022304998A42ACBFF9
:105410009B185B180393109B3BB1394600980EAA6A
:10542000FDF7ACFE002840F02C81002345460F9389
:1054300011AE5EE54846FAF79BFE019034E74AF06C
:10544000100A1AF0200308D0073525F00705A846F2
:105450006D6858F8084B0123D9E6A8461AF01005E4
:1054600058F8044B01D01D46F5E71AF0400301D06F
:10547000A4B2F0E71AF40075EDD0E4B2F3E7434AC2
:10548000CCE5A8461AF0100558F8044B01D0154693
:10549000D0E51AF0400201D0A4B2CBE51AF40075B1
:1054A0003FF4C8ADE4B2F2E70A2C75F1000306D26E
:1054B0003034E4B28DF8E7400DF1E70934E14FF004
:1054C000000A3AAB0993049B03F480630A930A220F
:1054D000002320462946FBF7E7FA0B910999303261
:1054E00001F8012C0A9A034601F1FF390AF1010A79
:1054F00012B3069A127852451ED1BAF1FF0F1BD093
:105500000A2C75F10005C0F00F81079B0990A9EBEB
:1055100003091A4648460899FDF7FAFF069B5A7890
:10552000099B12B1069A013206924FF0000A1C46FE
:105530000B9DCDF82490CAE70A2C75F10005F6D230
:10554000F2E0059A04F00F03D35C240944EA0574E1
:105550002D0909F8013D54EA0503F2D1E4E023B92D
:105560001AF0010F01D03024A4E70DF1E809DBE0C7
:10557000002B00F0A7800024A8468DF884308DF819
:105580003340E3E5F95B0008E95B0008A458000834
:105590004FF0100C072A6144CDE90F21C6F804C072
:1055A00008DD394600980EAAFDF7E8FD002868D10D
:1055B000614B11A80646103D93E60646ABE6394618
:1055C00000980EAAFDF7DAFD00285AD111AEB4E614
:1055D000394600980EAAFDF7D1FD002851D111AE31
:1055E000BBE64FF0100C072A6144CDE90F21C6F845
:1055F00004C008DD394600980EAAFDF7BFFD00285B
:105600003FD14E4B11A80646103DAFE60646C7E611
:105610001020072B0244CDE90F32706006DD3946B9
:1056200000980EAAFDF7AAFD58BB11A90E46103C22
:10563000BAE60E46D3E6394600980EAAFDF79EFD5F
:10564000F8B911ABDBE6029A0499541A002C7FF7E3
:10565000DAAE1026384D102CDDE90F211D6002F165
:1056600001021DDC5C60072A0C44CDE90F247FF7A2
:10567000CAAE394600980EAAFDF780FD00283FF417
:10568000C2AE7B6ED90705D4BB899A0502D4B86D2A
:10569000FBF71FFDBB895B067FF5EFABFFF7EABBAE
:1056A0001031072ACDE90F215E6002DC0833103C7F
:1056B000D1E7394600980EAAFDF760FD0028E0D139
:1056C00011ABF4E7109B13B900230F93D9E73946C8
:1056D00000980EAAFDF752FD0028F5D0D1E754EA54
:1056E0000502CDF810A03FF4A4AD012B3FF4DCAED1
:1056F000022B0DF1E8093FF424AF04F00703E4089E
:1057000044EA4574ED08303354EA05014A4609F885
:10571000013DF2D10499C80706D5302B04D03023BF
:1057200009F8013CA2F102093AABA3EB0903019C81
:10573000DDF810A00193B8E5F95B0008E95B00080B
:10574000F0B51F468B89ADF26C4D23F00203ADF826
:105750000C304B6E15461993CB890646ADF80E30CA
:10576000CB6916A807934B6A0C4609931AAB0093B2
:1057700004934FF480630293059300230693FBF791
:10578000A5FC2A463B4669463046FFF74DFB051E01
:1057900007DB69463046FCF7E3F8002818BF4FF0F6
:1057A000FF35BDF80C3016985B0642BFA38943F065
:1057B0004003A381FBF78BFC28460DF26C4DF0BD36
:1057C000062008B500F02CF80120FCF7D1F91F29BC
:1057D00038B505460C4604D9162303604FF0FF3058
:1057E00038BDD0F8382112B152F821304BB92846D3
:1057F00000F030F8224601462846BDE8384000F067
:1058000017B8012B0AD0591C03D1162303600120BD
:10581000E6E70021204642F8241098470020DFE701
:10582000024B01461868FFF7D2BF00BF0C000020F2
:1058300038B50023064D0446084611462B60FCF798
:105840008FF9431C02D12B6803B1236038BD00BF20
:1058500028080020FCF782B9F8B500BFF8BC08BCE6
:105860009E467047F8B500BFF8BC08BC9E4670471E
:1058700044697374616E63653A20256C7520636DAD
:105880000D0A00494E4600696E66004E414E006E9C
:10589000616E003031323334353637383961626306
:1058A0006465660030313233343536373839414239
:1058B00043444546003000496E66696E697479005C
:1058C0004E614E0042616C6C6F632073756363655B
:1058D00065646564002F6275696C642F676E752D51
:1058E000746F6F6C732D666F722D73746D33325FCE
:1058F00031332E332E72656C312E323032343039E2
:1059000032362D313731352F7372632F6E65776CD8
:1059100069622F6E65776C69622F6C6962632F73A1
:1059200074646C69622F64746F612E63002F6275FA
:10593000696C642F676E752D746F6F6C732D666F55
:10594000722D73746D33325F31332E332E72656C6A
:10595000312E32303234303932362D313731352F25
:105960007372632F6E65776C69622F6E65776C69F1
:10597000622F6C6962632F7374646C69622F6D703F
:105980007265632E63004300504F534958002E0048
:105990002C2066756E6374696F6E3A2000617373B4
:1059A000657274696F6E2022257322206661696CAE
:1059B00065643A2066696C6520222573222C206C70
:1059C000696E65202564257325730A0030303030F8
:1059D0003030303030303030303030302020202007
:1059E0002020202020202020202020200500000032
:1059F000190000007D0000000080E03779C34143BA
:105A0000176E05B5B5B89346F5F93FE9034F384D24
:105A1000321D30F94877825A3CBF737FDD4F1575D0
:105A2000000000000000F03F0000000000002440E3
:105A300000000000000059400000000000408F40BE
:105A4000000000000088C34000000000006AF84029
:105A50000000000080842E4100000000D01263414D
:105A60000000000084D797410000000065CDCD41C3
:105A7000000000205FA00242000000E876483742A4
:105A8000000000A2941A6D42000040E59C30A24242
:105A90000000901EC4BCD64200003426F56B0C43B7
:105AA0000080E03779C3414300A0D885573476435E
:105AB00000C84E676DC1AB43003D9160E458E143BF
:105AC000408CB5781DAF154450EFE2D6E41A4B4434
:105AD00092D54D06CFF08044F64AE1C7022DB54479
