:100000000C94B9000C94E1000C94E1000C94E10014
:100010000C94E1000C94E1000C94E1000C94E100DC
:100020000C94E1000C94E1000C94E1000C94E100CC
:100030000C94E1000C94E1000C94E1000C94E100BC
:100040000C9480030C94E1000C94F0030C94CA030C
:100050000C94E1000C94E1000C94E1000C94E1009C
:100060000C94E1000C94E100436D64733A2053500A
:1000700044233C302D3130303E202053544F50200B
:100080002052554E2020535441545553005265730D
:10009000746F7265642073706565643A2000466110
:1000A0006E20537065656420436F6E74726F6C6C64
:1000B0006572202D20507269736D203650524F208A
:1000C0003132560053657474696E672073706565CC
:1000D000643A20004E4F00594553002F32353520E9
:1000E0002052756E6E696E673A20002520205057A9
:1000F0004D3A200053706565643A200046616E20D9
:1001000052554E206174200046616E2053544F506A
:100110000053657269616C20496E7075743A2000F5
:1001200000000000240027002A0000000000250035
:1001300028002B0004040404040404040202020244
:10014000020203030303030301020408102040809A
:100150000102040810200102040810200000000819
:10016000000201000003040700000000000000007E
:10017000F80611241FBECFEFD8E0DEBFCDBF11E0DF
:10018000A0E0B1E0E6EAF4E102C005900D92A433EC
:10019000B107D9F721E0A4E3B1E001C01D92A03E70
:1001A000B207E1F710E0C9EBD0E004C02197FE01EF
:1001B0000E942708C83BD107C9F70E9422040C946B
:1001C000510A0C940000E1E6F1E02491EDE4F1E045
:1001D0009491E9E3F1E0E491EE23C9F0222339F0B0
:1001E000233001F1A8F4213019F1223029F1F0E097
:1001F000EE0FFF1FE65DFE4FA591B4912FB7F89467
:10020000EC91811126C090959E239C932FBF089559
:100210002730A9F02830C9F0243049F72091800018
:100220002F7D03C0209180002F7720938000DFCFA7
:1002300024B52F7724BDDBCF24B52F7DFBCF2091B4
:10024000B0002F772093B000D2CF2091B0002F7D47
:10025000F9CF9E2BDACFEDE4F1E02491E9E3F1E070
:100260008491882399F090E0880F991FFC01E05E4B
:10027000FE4FA591B491FC01E65DFE4F85919491EE
:100280008FB7F894EC91E22BEC938FBF0895AF9267
:10029000BF92CF92DF92EF92FF920F931F93CF9373
:1002A000DF936C017B018B01040F151FEB015E01D5
:1002B000AE18BF08C017D10759F06991D601ED916A
:1002C000FC910190F081E02DC6010995892B79F709
:1002D000C501DF91CF911F910F91FF90EF90DF90BB
:1002E000CF90BF90AF900895FC01538D448D252F82
:1002F00030E0842F90E0821B930B541710F0CF96C0
:10030000089501970895FC01918D828D981761F0F1
:10031000A28DAE0FBF2FB11D5D968C91928D9F5F08
:100320009F73928F90E008958FEF9FEF08952FB7FE
:10033000F8948091390190913A01A0913B01B091DC
:100340003C012FBF8093450190934601A093470144
:10035000B09348018DE391E00E94830197FF26C08E
:100360002FB7F8948091390190913A01A0913B0107
:10037000B0913C012FBF40914501509146016091E1
:10038000470170914801841B950BA60BB70B409158
:1003900041015091420160914301709144018417E1
:1003A0009507A607B707B0F28FEF9FEF0895FC01FE
:1003B000918D828D981731F0828DE80FF11D858D1A
:1003C00090E008958FEF9FEF0895FC01918D228DAD
:1003D000892F90E0805C9F4F821B91098F73992732
:1003E00008958DE391E00E94E50121E0892B09F455
:1003F00020E0822F089580E090E0892B29F00E9470
:10040000F10181110C9400000895FC01A48DA80F46
:10041000B92FB11DA35ABF4F2C91848D90E0019646
:100420008F739927848FA689B7892C93A089B18966
:100430008C91837080648C93938D848D981306C007
:100440000288F389E02D80818F7D80830895EF926B
:10045000FF920F931F93CF93DF93EC0181E0888F7E
:100460009B8D8C8D98131AC0E889F989808185FF4E
:1004700015C09FB7F894EE89FF896083E889F989F0
:1004800080818370806480839FBF81E090E0DF91F2
:10049000CF911F910F91FF90EF900895F62E0B8D45
:1004A00010E00F5F1F4F0F731127E02E8C8D8E1100
:1004B0000CC00FB607FCFACFE889F989808185FF67
:1004C000F5CFCE010E940502F1CFEB8DEC0FFD2F91
:1004D000F11DE35AFF4FF0829FB7F8940B8FEA8922
:1004E000FB8980818062CFCF0F931F93CF93DF93DF
:1004F0008C01D0E0C0E0F801EC0FFD1F6491662391
:1005000041F08DE391E00E942702892B11F02196A2
:10051000F2CFCE01DF91CF911F910F910895CF932C
:10052000DF93EC01888D8823B9F0AA89BB89E8891B
:10053000F9898C9185FD03C0808186FD0DC00FB6C1
:1005400007FCF7CF8C9185FFF2CF808185FFEDCF3F
:10055000CE010E940502E9CFDF91CF910895FC0101
:1005600001900020E9F73197AF01481B590BBC01FE
:100570008DE391E00C944701CF93DF930E947402C6
:10058000EC018BE191E00E94AF028C0F9D1FDF9187
:10059000CF910895CF93DF9365E28DE391E00E94C0
:1005A0002702EC018BE191E00E94AF028C0F9D1FAE
:1005B000DF91CF9108958F929F92AF92BF92CF9289
:1005C000DF92EF92FF920F931F93CF93DF93CDB7FC
:1005D000DEB7A1970FB6F894DEBF0FBECDBF6C019A
:1005E000990FEE08FF08F7FE41C06DE28DE391E040
:1005F0000E9427028C0122273327A9012C193D09CB
:100600004E095F0919A2CE0181967C019AE0892EDC
:10061000912CA12CB12CCA01B901A50194010E9411
:10062000EF07605DF70162937F01211531054105F8
:10063000510589F790E080E0309719F0CF010E94D2
:10064000AF02800F911FA1960FB6F894DEBF0FBEC8
:10065000CDBFDF91CF911F910F91FF90EF90DF9071
:10066000CF90BF90AF909F908F900895A701960173
:1006700019A28E010F5D1F4F8AE0C82ED12CE12CEC
:10068000F12CCA01B901A70196010E94EF07605D34
:10069000F80162938F01211531054105510589F754
:1006A00090E080E0309779F2CF010E94AF02CBCF8B
:1006B0000F931F93CF93DF93EC018881998100976B
:1006C00059F02A813B812617370730F081E0DF910E
:1006D000CF911F910F9108958B016F5F7F4F0E9403
:1006E0005209009759F0998388831B830A832C81D0
:1006F0003D81232B59F7FC011082E8CF80E0E7CF42
:100700001F920F920FB60F9211242F933F938F9346
:100710009F93AF93BF938091390190913A01A0913B
:100720003B01B0913C013091380123E0230F2D377C
:1007300058F50196A11DB11D209338018093390110
:1007400090933A01A0933B01B0933C018091340116
:1007500090913501A0913601B09137010196A11D0C
:10076000B11D8093340190933501A0933601B0936D
:100770003701BF91AF919F918F913F912F910F9032
:100780000FBE0F901F90189526E8230F0296A11D0B
:10079000B11DD2CF1F920F920FB60F9211242F933B
:1007A0003F934F935F936F937F938F939F93AF93F9
:1007B000BF93EF93FF938DE391E00E940502FF91B9
:1007C000EF91BF91AF919F918F917F916F915F91C9
:1007D0004F913F912F910F900FBE0F901F90189542
:1007E0001F920F920FB60F9211242F938F939F9306
:1007F000EF93FF93E0914D01F0914E018081E091E4
:100800005301F091540182FD1BC0908180915601EB
:100810008F5F8F7320915701821741F0E09156014D
:10082000F0E0E35CFE4F958F80935601FF91EF91CE
:100830009F918F912F910F900FBE0F901F90189541
:100840008081F4CFCF93DF93CDB7DEB72C970FB66F
:10085000F894DEBF0FBECDBF789484B5826084BDAE
:1008600084B5816084BD85B5826085BD85B58160B4
:1008700085BD80916E00816080936E001092810032
:1008800080918100826080938100809181008160ED
:1008900080938100809180008160809380008091AE
:1008A000B10084608093B1008091B000816080933A
:1008B000B00080917A00846080937A0080917A0001
:1008C000826080937A0080917A00816080937A00C0
:1008D00080917A00806880937A001092C10090E045
:1008E00080E00E948307282F30E0853620F4309383
:1008F000010120930001E0914D01F0914E0182E051
:100900008083E0914901F0914A011082E0914B010E
:10091000F0914C018FEC808310925501E0915101D0
:10092000F091520186E08083E0914F01F0915001F7
:10093000808180618083E0914F01F091500180813E
:1009400088608083E0914F01F09150018081806840
:100950008083E0914F01F091500180818F7D8083F1
:100960000E942B018EE990E00E94BC028DE890E08D
:100970000E94740280910001909101010E94DB02AB
:100980000E94CA0288E690E00E94BC0224E6422E41
:10099000512C612C712C332433941091000190E080
:1009A00080E00E948307181729F0612F90E080E013
:1009B0000E948B078DE391E00E94E501181619064D
:1009C0000CF091C18DB69EB618861F821A861986C4
:1009D0001C861B8670E060E0CE0107960E945803DB
:1009E0002F81388581112EC02115310519F0C901DB
:1009F0000E94C90818861F821C861B861A861986C3
:100A00000E9497010B851C8597FD24C08A309105B3
:100A100009F189831A820F5F1F4FB801CE01079633
:100A20000E945803882361F32F8138858B859C852C
:100A3000BE016F5F7F4F820F931F0E94210A1C87A8
:100A40000B87DECF1C861B866DE171E0C9010E9419
:100A5000210AD6CFCF80D884C114D10429F07601E1
:100A60000115110509F047C0EB84FC84C70101960C
:100A70002DB73EB7281B390B0FB6F8943EBF0FBEFB
:100A80002DBF0DB71EB70F5F1F4F892B71F0F801F7
:100A9000E114F10449F06F817885A701C8010E9433
:100AA000280AF801EE0DFF1D108281E191E00E94FD
:100AB0007402C8010E94AF028BE191E00E94AF0274
:100AC0006EE171E0C8010E94180A892B09F049C043
:100AD0001092020188E091E00E94BC028F8198850B
:100AE000009711F00E94C9080FB6F8949EBE0FBE81
:100AF0008DBE60CF750157012FEFA21AB20AF70120
:100B00008081082E000C990B0E947707892B91F7A2
:100B1000015011090C0D1D1DF8018081082E000CDB
:100B2000990B0E947707892B31F00E151F0518F0DD
:100B300001501109F1CFA8014F5F5F4F4E195F09B6
:100B40005C874B87CE14DF0420F4B701C6010E94F6
:100B50000F0AEF81F8858B859C85E80FF91F1082BD
:100B600083CF63E271E0C8010E94180A892B79F4EF
:100B7000309202018CEF90E00E947402809100019B
:100B8000909101010E94DB020E94CA02A7CF67E296
:100B900071E0C8010E94180A7C01892BB9F5009107
:100BA00000011091010180910201882399F02FEF3B
:100BB00030E0D8010E942008A30192010E94990709
:100BC00079011216130634F42F3F31051CF4EE247C
:100BD000EA94F12C84EF90E00E947402C8010E9414
:100BE000DB028BEE90E00E947402C7010E94DB02E0
:100BF0008BED90E00E94740280910201882319F02D
:100C000087ED90E069CF84ED90E066CF1A8219827B
:100C10001C821B821E821D8263E070E0CE01019661
:100C20000E94580329813A81811153C02115310551
:100C300019F0C9010E94C9081A8219821E821D82F8
:100C40001C821B82C980DA808B859C85892B09F4E4
:100C5000C4C0AF80B884B601C5010E94370A0097AE
:100C600009F4BBC07C01EA18FB08C114D10409F0E7
:100C7000BBC0F7FC33CF62E371E0C8010E944307B9
:100C800062E371E090E080E00E944307009709F47E
:100C900025CF0E942507382F292F8536910514F07E
:100CA00034E620E0032F122F17FF02C010E000E00F
:100CB000109301010093000121E0181619060CF0B1
:100CC00020E02093020184EC90E00E947402C801AD
:100CD00059CF83E090E09E838D836EE271E0C9017D
:100CE0000E94210AAFCF80910201811112C00E949F
:100CF0002B0180E00E94E30080E090E0892B09F462
:100D00004CCE0E94F101882309F447CE0E940000D6
:100D100044CEA0910001B09101012FEF30E00E947C
:100D20002008A30192010E949907D22EE22EF32EF1
:100D3000C70101978E3F910520F40E942B0181E0AD
:100D4000D9CF022F132F0E942B010115110589F213
:100D50000F3F1105A1F3E1E6F1E0E491E33019F171
:100D600040F4E130B1F0E230C9F0003811053CF751
:100D7000C0CFE73011F1E83041F1E430B1F78091B4
:100D80008000806280938000F0928B00E0928A0065
:100D9000B3CF84B5806884BDD7BCAECF84B5806244
:100DA00084BDD8BCA9CF80918000806880938000EA
:100DB000F0928900E09288009FCF8091B000806817
:100DC0008093B000D092B30097CF8091B000806242
:100DD0008093B000D092B4008FCFEE24EA94FE2C22
:100DE000C114D10409F47ACEC6010E94C90841CFCA
:100DF000EDE3F1E01382128288EE93E0A0E0B0E030
:100E000084839583A683B7838DE091E0918380836B
:100E100085EC90E09587848784EC90E097878687BF
:100E200080EC90E0918B808B81EC90E0938B828BB7
:100E300082EC90E0958B848B86EC90E0978B868B90
:100E4000118E128E138E148E0895FC018827992717
:100E5000E89421912032E9F3293010F02E30C8F3C4
:100E60002B3241F02D3239F4689404C00E946F0790
:100E7000820F911D219120532A30C0F31EF49095CA
:100E800081959F4F08954AED51E00E9448070895CB
:100E9000FA01A191B081009719F41097E1F0CD010A
:100EA000DC01CD010D90002011F4C00113C0FB0145
:100EB0002191222319F02015D9F7F3CFFB012191BD
:100EC000201519F41E92119606C02223C1F70D9029
:100ED0000020A1F7D001FA01A193B08308957AE030
:100EE000979F902D879F802D910D1124089591112A
:100EF0000C948007803219F089508550C8F7089506
:100F0000992788270895F999FECF92BD81BDF89A57
:100F1000992780B50895262FF999FECF1FBA92BD63
:100F200081BD20BD0FB6F894FA9AF99A0FBE0196CA
:100F30000895052E97FB1EF400940E94B00757FDFC
:100F400007D00E94EF0707FC03D04EF40C94B007C3
:100F500050954095309521953F4F4F4F5F4F0895E5
:100F600090958095709561957F4F8F4F9F4F089515
:100F70002F923F924F925F926F927F928F929F92A9
:100F8000AF92BF92CF92DF92EF92FF920F931F9397
:100F9000CF93DF93CDB7DEB7CA1BDB0B0FB6F89448
:100FA000DEBF0FBECDBF09942A88398848885F8488
:100FB0006E847D848C849B84AA84B984C884DF80F9
:100FC000EE80FD800C811B81AA81B981CE0FD11DDD
:100FD0000FB6F894DEBF0FBECDBFED010895A1E2BC
:100FE0001A2EAA1BBB1BFD010DC0AA1FBB1FEE1FA3
:100FF000FF1FA217B307E407F50720F0A21BB30BEE
:10100000E40BF50B661F771F881F991F1A9469F769
:1010100060957095809590959B01AC01BD01CF01C5
:101020000895A29FB001B39FC001A39F700D811DC1
:101030001124911DB29F700D811D1124911D0895E1
:101040000E941108B7FF0895821B930B0895EE0FBD
:10105000FF1F0590F491E02D09940F931F93CF93F8
:10106000DF938230910510F482E090E0E091DE01A0
:10107000F091DF0130E020E0B0E0A0E0309799F49B
:101080002115310509F44AC0281B390B24303105DC
:10109000D8F58A819B816115710589F1FB019383E4
:1010A0008283FE0111C04081518102811381481762
:1010B0005907E0F04817590799F4109761F0129614
:1010C0000C93129713961C933296CF01DF91CF9118
:1010D0001F910F9108950093DE011093DF01F4CF6B
:1010E0002115310551F04217530738F0A901DB01F2
:1010F0009A01BD01DF01F801C1CFEF01F9CF909353
:10110000DF018093DE01CDCFFE01E20FF31F81935B
:1011100091932250310939832883D7CF2091DC0164
:101120003091DD01232B41F420910501309106011E
:101130003093DD012093DC01209103013091040103
:101140002115310541F42DB73EB74091070150916B
:101150000801241B350BE091DC01F091DD01E21761
:10116000F307A0F42E1B3F0B2817390778F0AC01CA
:101170004E5F5F4F2417350748F04E0F5F1F5093A7
:10118000DD014093DC01819391939FCFF0E0E0E09B
:101190009CCFCF93DF930097E9F0FC013297138245
:1011A0001282A091DE01B091DF01ED0130E020E07C
:1011B0001097A1F420813181820F931F2091DC01CF
:1011C0003091DD012817390709F061C0F093DD0186
:1011D000E093DC01DF91CF910895EA01CE17DF079C
:1011E000E8F54A815B819E0141155105B1F7E9019E
:1011F000FB83EA8349915991C40FD51FEC17FD0772
:1012000061F4808191810296840F951FE901998391
:101210008883828193819B838A83F0E0E0E0129649
:101220008D919C9113970097B9F52D913C91119751
:10123000CD010296820F931F2091DC013091DD01D8
:101240002817390739F6309751F51092DF011092BF
:10125000DE01B093DD01A093DC01BCCFD383C28358
:1012600040815181840F951FC817D90761F44E5FE3
:101270005F4F88819981480F591F518340838A812C
:101280009B81938382832115310509F0B0CFF093C0
:10129000DF01E093DE019ECFFD01DC01C0CF1382B0
:1012A0001282D7CFB0E0A0E0E8E5F9E00C94BA07ED
:1012B0008C01009751F4CB010E942D088C01C801CC
:1012C000CDB7DEB7E0E10C94D607FC01E60FF71FBF
:1012D0009C0122503109E217F30708F49DC0D9019F
:1012E000CD91DC911197C617D70798F0C530D1057D
:1012F00030F3CE0104978617970708F3C61BD70B68
:101300002297C193D1936D937C93CF010E94C9081A
:10131000D6CF5B01AC1ABD0A4C018C0E9D1EA0916C
:10132000DE01B091DF01512C412CF12CE12C109702
:1013300031F58091DC019091DD018815990509F066
:101340005CC04616570608F058C080910301909182
:101350000401009741F48DB79EB740910701509169
:101360000801841B950BE817F90708F055C0F093A6
:10137000DD01E093DC01F90171836083A0CF8D91E1
:101380009C91119712966C90129713967C901397DC
:10139000A815B90559F56C0142E0C40ED11CCA1458
:1013A000DB0420F1AC014A195B09DA0112961597AA
:1013B00080F06282738251834083D9016D937C9364
:1013C000E114F10471F0D7011396FC93EE93129798
:1013D00076CF22968C0F9D1FF90191838083F301B4
:1013E000EFCFF093DF01E093DE0169CF4816590695
:1013F00008F42C017D01D3019ACFCB010E942D0866
:101400007C01009749F0AE01B8010E940F0AC801A3
:101410000E94C908870153CF10E000E050CFFB01C4
:10142000DC0102C001900D9241505040D8F7089560
:10143000FB01DC018D91019080190110D9F3990B0A
:101440000895FB01DC0101900D920020E1F7089561
:10145000FB01DC014150504048F001900D9200200A
:10146000C9F701C01D9241505040E0F70895FB01BB
:1014700051915523A9F0BF01DC014D914517411150
:10148000E1F759F4CD010190002049F04D9140154C
:101490004111C9F3FB014111EFCF81E090E00197C9
:0614A0000895F894FFCF4F
:1014A6005000010000E00180000000000027024714
:1014B6000174018F02E5018301D7010D0A0053541F
:1014C6004F500052554E00535441545553005350FB
:0414D60044002300AB
:00000001FF
